:020000040000fa
:080000000002040000000000f2
:020000040000fa
:10000800de050000de050000de050000de0500005c
:10001800de050000de050000de050000de0500004c
:10002800de050000de050000de050000de0500003c
:10003800de050000de050000de050000de0500002c
:10004800b6020000de050000de050000de05000047
:10005800de050000de050000de050000de0500000c
:10006800de050000de050000de050000de050000fc
:10007800de050000de050000de050000de050000ec
:10008800de050000de050000de050000de050000dc
:10009800de050000de050000de050000de050000cc
:1000a800de050000de050000de050000de050000bc
:1000b800de050000de050000de050000de050000ac
:1000c800de050000de050000de050000de0500009c
:1000d800de050000de050000de050000de0500008c
:1000e800de050000de050000de050000de0500007c
:1000f800de050000de050000de050000de0500006c
:10010800de050000de050000de050000de0500005b
:10011800de050000de050000de050000de0500004b
:10012800de050000de050000de050000de0500003b
:10013800de050000de050000de050000de0500002b
:10014800de050000de050000de050000de0500001b
:10015800de050000de050000de050000de0500000b
:10016800de050000de050000de050000de050000fb
:10017800de050000de050000de050000de050000eb
:10018800de050000de050000de050000de050000db
:10019800de050000de050000de050000de050000cb
:1001a800de050000de050000de050000de050000bb
:1001b800de050000de050000de050000de050000ab
:1001c800de050000de050000de050000de0500009b
:1001d800de050000de050000de050000de0500008b
:1001e800de050000de050000de050000de0500007b
:0801f800de050000de05000039
:020000040000fa
:10020800de050000de050000de050000de0500005a
:10021800de050000de050000de050000de0500004a
:10022800de050000de050000de050000de0500003a
:10023800de050000de050000de050000de0500002a
:10024800b6020000de050000de050000de05000045
:10025800de050000de050000de050000de0500000a
:10026800de050000de050000de050000de050000fa
:10027800de050000de050000de050000de050000ea
:10028800de050000de050000de050000de050000da
:10029800de050000de050000de050000de050000ca
:1002a800de050000de050000de050000de050000ba
:1002b800de050000de050000de050000de050000aa
:1002c800de050000de050000de050000de0500009a
:1002d800de050000de050000de050000de0500008a
:1002e800de050000de050000de050000de0500007a
:1002f800de050000de050000de050000de0500006a
:10030800de050000de050000de050000de05000059
:10031800de050000de050000de050000de05000049
:10032800de050000de050000de050000de05000039
:10033800de050000de050000de050000de05000029
:10034800de050000de050000de050000de05000019
:10035800de050000de050000de050000de05000009
:10036800de050000de050000de050000de050000f9
:10037800de050000de050000de050000de050000e9
:10038800de050000de050000de050000de050000d9
:10039800de050000de050000de050000de050000c9
:1003a800de050000de050000de050000de050000b9
:1003b800de050000de050000de050000de050000a9
:1003c800de050000de050000de050000de05000099
:1003d800de050000de050000de050000de05000089
:1003e800de050000de050000de050000de05000079
:0803f800de050000de05000037
:020000040000fa
:10040000efa620000eff27000e018800000000006c
:10041000000020000000e000020032000001200087
:10042000200288000c00070080cb22000100200081
:100430001f000700000020000000e0000200320062
:100440000000020000000000800302000000000025
:100450000040da000000fe004440a900a010200087
:100460000000e0000300320000002000a00188002e
:100470004440a80000000600f03fb1000180b10038
:1004800006003500ee03090000000000403fb10007
:100490000180b100fbff3d001000b000203fb00024
:1004a0000200350000800900000000000000060086
:1004b00091018800800078000000eb0015003700f3
:1004c000e280400032a0b4009101ba00e280400016
:1004d00032a0b4009102ba00e280400032a0b40021
:1004e0000002eb00472bde00f507b200602ce100b4
:1004f00004003a000059eb008301e900fdff3e00d3
:10050000040037006128e100010032000082eb00a6
:10051000040007001101ba000200e000e8ff3a0001
:10052000000006003159ba008301e9000c003200d6
:100530002159ba008301e900080032000400e000fc
:1005400003003a00e280400032a0b400f5ff37001b
:1005500011d9ba008301e900faff3a008100e800ee
:10056000e180400032a0b40000000600849fbe007d
:10057000861f78003400f80004002000a4018800e1
:100580000000fa0014c0b300044378004580200046
:10059000864a78008500a9000080fa003400f9003e
:1005a0004f0378004f02be00004006000a00fa0028
:1005b0002007980031079800024f98000002eb00d6
:1005c000140798000002eb00040f78000e4a900018
:1005d000e04f52001b00320050120700000278006a
:1005e000140798002e029000240290009e029000b2
:1005f000848252003e029000340390003e0290003c
:10060000240290000402530004aab9008402780076
:100610002e029000340390002e02900024029000dd
:1006200004025300110009008482d80000027800ff
:10063000840278003e02900024029000048f420061
:100640001a003700231207000002780014079800f0
:100650002e029000140278009e02900084825200c4
:100660003e029000140390003e02900014027800b5
:100670000402530004aab900840278002e029000fc
:10068000140390002e02900014027800040253001c
:10069000110009008482d8000002780084027800ea
:1006a0003e02900014027800048f42001e0278007f
:1006b000040078000080fa00000006000000fa0044
:1006c00013e1a9001221a90012c1a9009408800019
:1006d0000440a0000450a000940888000002eb0031
:1006e00054088800449c2000740888008500a900f4
:1006f0009500a80013e1a8000080fa0000000600a1
:100700004600fa00102798002127980014002000c6
:1007100024538800e7120700541107001112070044
:1007200080c0b3003416070070c0b3003216070053
:100730009d0f0700760047000400200005f023000d
:10074000849fbe00f4282c0055c72300849fbe0060
:100750000600200007f823008002eb000002eb00f7
:100760008001eb000001eb008000eb007e1507002c
:10077000e8875700c00220000e004000a49929001d
:1007800095f92300849fbe0064ba290045bc23006c
:10079000849fbe00a699290097f123008002eb00f8
:1007a0000002eb008001eb000001eb008000eb0099
:1007b0006d150700e88757000042eb00044f7800f2
:1007c000e480200094029000e4802000140278006d
:1007d000048242000402d10014079800e480200043
:1007e000b4029000e48020002402900004824200c1
:1007f0000402d100240798000040eb00db12070040
:1008000080c1b300d91207000040eb00b31207000b
:1008100090c1b300d51207000040eb00af120700f3
:10082000200c2a00e4060700c0a42000ec06070004
:10083000a2ff07000100370000000000e3100700de
:1008400000427800e04f52000d0032000041eb0002
:10085000e18020006080200054ff07000002780043
:100860001407980012c0b300e180200060802000cf
:100870004eff0700000278002407980001003700af
:1008800000000000d110070000427800e04f520045
:10089000fcff3a004480200014427800e04f5200f0
:1008a000ad0032000042eb00044378004580200098
:1008b000864a78000041eb00e18020006080200043
:1008c0003aff0700000278003407980012c0b30016
:1008d000e18020006080200034ff070000027800e3
:1008e0004407980010c0b300ff0e07000002780014
:1008f0000440880010c0b300130f07000002780006
:100900001440880004408000040078009e0390009a
:1009100076034700d4cc2c00c5d423000001780016
:100920008700780006007800381507006e0a9000ee
:10093000840278001e02900004824200050020001c
:100940000400be00d10007000002be00540798005a
:10095000650798005e009000ee009000a10107007e
:100960000002be00040278000041eb008400780021
:10097000e080200013100700000278007407980040
:10098000fe00900080c0b300bf1507001440800037
:1009900004007800ae039000c60220000e0343005e
:1009a000d4cc2c00c5d42300000178008700780047
:1009b00006007800151507001e1a900084027800c2
:1009c0002e02900004824200050020000400be00b8
:1009d000ae0007000002be00040f9800150f98003b
:1009e0000e0890009e0890007e0107000002be00e5
:1009f0000402780012c0b30084007800e080200078
:100a0000f00f070000027800240f9800ae08900055
:100a100070c0b3009c1507001e427800e44f5200de
:100a20004c00360080c1b300501207000040eb00bc
:100a30002a12070090c1b3004c12070080c0b30017
:100a4000261207002e029000841f78009e0290005c
:100a5000851f7800640d2a00841f78008a0607002d
:100a6000e6875700c0a420005d06070015408000ff
:100a700004408000851f7800841f7800a40e2a009f
:100a8000841f780080060700e6875700c0a4200076
:100a9000530607004e039000861f78003e02900028
:100aa000841f7800840f2a00841f780076060700d0
:100ab000e6875700c0a42000490607003e1b9000af
:100ac000ce1b90000e1290009e129000869fbe00da
:100ad000849fbe0084102a00841f78006a060700e5
:100ae000ea875700c0a420003d0607005e1b900067
:100af000ee1b90002e129000be129000869fbe004a
:100b0000849fbe00d4112a00841f78005e0607006f
:100b1000ea875700c0a42000310607007e1b900022
:100b20008e2390004e129000de129000869fbe0031
:100b3000849fbe0024132a00841f780052060700f9
:100b4000ea875700c0a42000250607000042eb00fa
:100b5000044f78001e4fe800301007000042780074
:100b6000e04f520034ff3200fe10070080c0b30097
:100b70002115070070c0b3001f1507008a0e07007b
:100b8000e480200094029000e480200014027800a9
:100b9000048242000402d10014079800e48020007f
:100ba000b4029000e48020002402900004824200fd
:100bb0000402d1002407980020ff37000040da002b
:100bc0000000fe0000c0da00000006000a00fa0083
:100bd000e20f500022003e0024538000e10f52003b
:100be0000600320087232000462320002423200013
:100bf00005232000e08f530004003a0087222000e4
:100c00004622200024222000052220000000280087
:100c10001500600003003a00800b780007002800f0
:100c2000958a7300054020009482620001003a001a
:100c300014a0a00082027800060037009403780018
:100c40000710b200fdff3200b103fb00070b780074
:100c50008502e900e08f5200f8ff3a0008003700f3
:100c600034002000c0bf9f00e2bf9f00b4bf9f00c0
:100c7000d1bf9f006a805700d2ff07006fb997006d
:100c8000020078000080fa00000006006011b80041
:100c900013013700889fbe008a9fbe008c1f78001a
:100ca0003e0107004501330003866c006450e100fb
:100cb000240032006420e100270032006150e1008e
:100cc000220032006120e100210032008b854200c9
:100cd000eb07b1000134b800003ab8000804420044
:100ce00089844a00013ab8000030b800888040008a
:100cf00009014a00040033000000400081804800e0
:100d0000020149008b05e900c909dd00830170007b
:100d10000100320013002000c814de004814dd007a
:100d20004709de001200b200c808de000884700027
:100d30003201070001f0a1000cf0a70001f0a000b3
:100d4000270137006120e100290132000801be00bf
:100d50000200be00f7ff37006150e100fcff3a00df
:100d600023013700889fbe008a9fbe008c1f780039
:100d70000a0107001101330003866c006450e10092
:100d80002e0032006420e100330032006150e100a7
:100d90002f0032006120e1003100320085855500ce
:100da000eb07b00009002000080420000500370010
:100db0000804440089844c000a0031000603430003
:100dc00087834b000001530081815b00f8ff3300f3
:100dd0000203be000800a0000804440089844c00ff
:100de000f6ff3900c639dd008301730001003200cf
:100df000130020008904d1000884d3000998a300bf
:100e0000050032000800a7000300a0008904d100fb
:100e10000884d3008b05e8008904d1000884d3003e
:100e20000001eb000281d200f400070001f0a100f4
:100e30000cf0a70001f0a000e90037006420e100f9
:100e4000eb0032000801be000200be00f7ff3700d1
:100e50006120e100e60032006000b800f3ff3700d7
:100e60000000200001f82700f0ff370003f0a20087
:100e7000889fbe008a9fbe008c1f7800c7000700b5
:100e8000ce0033006450e1004f0032006420e100e6
:100e90005200320003826c0007003b000905d000bd
:100ea0000306d000820f54000c065d0002003900da
:100eb000020032008901780003067800858255001f
:100ec00004003d000003fd008103fd008502ea00ef
:100ed0008b854200840f720002003b00600010000e
:100ee000e08018006011b8000005eb007a28e100ee
:100ef0000a00390006007800c75ddd00f707b20080
:100f0000878075002d003700828171000a0178000a
:100f1000610560008180d1000080d3008502e90076
:100f2000f9ff3b00060440008784480002003b00b4
:100f300060041400e0841c000988a300070032004c
:100f40008a81710082817100610164008904d1008d
:100f50000884d3008b05e800170037000978a30048
:100f600013003a000b00e000130034008b05e90089
:100f70000804440089844c000a4474000978a300e2
:100f80000d003a000b00e000070034008b05e9007b
:100f90000804440089844c0001003a000b00200042
:100fa0000978a300f7ff32000001eb0002003700d0
:100fb000828171000a017800900007000cf0a70000
:100fc00001f0a000860037006420e10002003a0032
:100fd000838f6c00860033000801be000200be0053
:100fe0007f0037000001be00aa0007000470a700c0
:100ff00003f0a10003f8a30013003a006509b10053
:1010000010003200090035006928e10002003500b7
:101010000100280000000500000040008180480019
:101020008502e900fcff3a0000000600f88f42004c
:10103000050035008100d1000080d3008502e80062
:10104000fcff3a00000006008000eb0000000500f5
:101050004f89de0082017800a30037000001be0046
:101060008c0007000470a70003f0a1006509b1001f
:10107000160032000d0035006828e100060035003a
:10108000f0ff2f00f1ff27000300e00013003b00fa
:101090000100280000000500000040008180480099
:1010a0008502e900fcff3a0008003700f88f420093
:1010b00002003c008000eb00000005008100d10030
:1010c0000080d3008502e800fcff3a000300e00046
:1010d00002003b0060001000e080180000000600e5
:1010e000889fbe008a9fbe000082700004027100cb
:1010f00004827100260032000004be000200be001f
:101100006011b8006b092000950220000182cf0019
:101110000a0039000541b1000082cf000700390004
:101120000541b1000982cf00040039000541b1003a
:101130000882cf00010039000541b100054252008c
:10114000120032000a003b008281710061016400dc
:101150008100d1000080d3008984d3000884d300ab
:101160008b05e8000442e800f7ff3a00070037006b
:101170000804440089844c00000048008180480035
:101180008b05e9000442e900f9ff3a001b00070063
:101190004f05be004f04be00000006000004be0064
:1011a0003c0007000003be000405be000200be00b4
:1011b00038000700844f7500000006000200be00e2
:1011c0006450e100050036006420e10002003600b2
:1011d0000968a30001003a000800be000160a000f9
:1011e0004f0678004f05be004f04be000000060009
:1011f000f0ff2f00f1ff2700f9ff370081002000ea
:10120000618055000b003d000b00200061fe2f00a7
:101210000100e1001d003400828171006101640061
:101220008904d1000884d3000000e800faff3a00e6
:101230007100200061006400030070000200600083
:101240000900320061044400e0844c000988a500d4
:10125000050032008b05e8006808e10002003a0052
:101260008904d1000884d300f20f20000258e10065
:1012700005003d00c75ddd00f907b20089807500fb
:1012800008007800000006000bf827008b007800ab
:1012900000000500c70ade00f107b200f50fb2003a
:1012a00008003200e1cf4200020032000170a000cd
:1012b00024000500810f70000100320004080500c1
:1012c00044000500810f700002003a001400050080
:1012d0008502e9000000400081c04800fcff3b009f
:1012e0000170a00024000500881f78000304780026
:1012f0000300e00007003d0060001000e0801800df
:1013000060011900e081190002003b0001f02d008e
:101310000300370072ff070008f0a70001f0a000eb
:101320004f04780000000600889fbe008a9fbe0020
:101330003004be002005be000404440085844c0037
:1013400006054d0087854d000898be000a90be0036
:101350000440e10005c8e10006d0e10007d8e10043
:1013600002003100680040001008e8004f05be0090
:101370004f04be00000006001000fa00889fbe0067
:101380008a9fbe00110020000605be000404be00b6
:101390003002be002003be00c4b79f00d5b79f0037
:1013a000e6b79f00f7b79f000802520089825a00f3
:1013b0000a035b008b835b0084bf9f0095bf9f0087
:1013c000a6bf9f00b7bf9f000498be000698be004e
:1013d0004fb29700dfb297006fb39700ffb397004b
:1013e000b0000700010039008000eb004f05be008f
:1013f000108810004f04be000080fa0000000600b4
:101400001400fa00889fbe008a9fbe008c9fbe0019
:101410000006eb0079000700ccb79f00bcb79f0027
:10142000acb79f009cb79f008cb79f000605be001d
:101430000404be000d0420004fb39700bfb2970014
:10144000860343002fb29700e00f530004003d00d5
:10145000990007000f004000b3ff070003003700aa
:10146000950007000f004000c3ff0700cfb29700b0
:1014700095bf9f00e08f520009003500660007000d
:1014800014002000050020006033b8000000720046
:10149000818072000201730083817300570007008e
:1014a0000c06e8008d0f5600e3ff3a001fba9700c4
:1014b000e00f520005003d000802be000a03be0016
:1014c00000fe2f000f00400097ff07004faa970073
:1014d000e00f520008003a000fb497009fb4970045
:1014e0002fb59700bfb59700d8b79f00e9b79f0009
:1014f000fab79f008bbf9f00470007004f06be0052
:101500004f05be004f04be000080fa000000060038
:10151000881f780018002000881f7800b8ff070097
:101520008f87e9004f04780000000600801feb0061
:10153000b3ff07008f87e90000000600889fbe0008
:101540008a9fbe004100070008003d007a000700a6
:1015500043000700180020004600070008003d0077
:101560002f0007000004eb00050037000004eb002b
:101570004000070002003d0029000700180020007d
:10158000e3ff0700e00f5400010032003e000700b7
:101590004f05be004f04be0000000600889fbe003d
:1015a0008a9fbe008c1f78002800070006003d00bf
:1015b000610007001c002000290007003900070017
:1015c00006003d00040037000006eb00290007007c
:1015d00002003d005800070012000700d3ff07007b
:1015e000e00f560001003200270007004f06780088
:1015f0004f05be004f04be000000060001000700ba
:101600000000060090b79f00a1b79f00b2b79f00ef
:10161000c3b79f0000000600070007000000060097
:10162000450007000402540085825c0006035d004b
:1016300087835d00000006001fb09700afb09700e1
:101640003fb19700cfb1970000000600e00f5000b7
:10165000e08f5800e00f5900e08f590000000600ad
:101660000000540081805c0002015d0083815d0008
:1016700000000600e00f5200e08f5a00e00f5b0010
:10168000e08f5b00000006006022b8006033b80005
:101690000000520081805a0002015b0083815b00e0
:1016a000000006000820e10009a8e1000ab0e100fe
:1016b0000bb8e100000006004f2bde00deff070044
:1016c00086837300858242004f23de00a7b79f0008
:1016d000868272000402420095b79f00ffaa97001d
:1016e0004f2bde00858242000602720084b79f0005
:1016f0006faa97004f23de00040242008682720028
:10170000f5af9f004f18de0000027200caff07000d
:10171000e4af9f00000040008180480002014900c2
:10172000838149000802be000a03be00b5ff07001e
:1017300000fe2f00000006006044b8006055b800ad
:1017400000000600889fbe008a9fbe008c1f7800a4
:101750000006eb00e00f5000e08f5800e00f59004a
:10176000e08f590007003d006044b8006055b800a4
:101770001c0020000000540081805c0002015d001c
:1017800083815d00e00f5200e08f5a00e00f5b00a4
:10179000e08f5b0007003d006044b8006055b80072
:1017a0000c00a2000402540085825c0006035d0068
:1017b00087835d0017020700e00f56000600320025
:1017c0006022b8006033b8000000520081805a00e7
:1017d00002015b0083815b004f0678004f05be006d
:1017e0004f04be00000006006022b8000602200080
:1017f0000000d0008180d2000482d2008582d20015
:101800000000a0000202520083825a00030031004f
:101810000202420083824a000000a1000603e900a0
:10182000f3ff3a0000000600020ab900001bb900ed
:101830000200b80081004200810043000000060061
:101840002800fa00889fbe008a9fbe008c9fbe00c1
:1018500003866b00110207000028a30064003a0011
:101860000128a30067003a000008a30062003a00c4
:101870000108a30065003a001e009000be08900019
:1018800081064000ed3fb100f4805700ee0190006a
:10189000111ab8008e099000311bb8009e09900003
:1018a000311cb800511db800f485570046000700f0
:1018b000fe0190003a0007008b85e8003e0007001b
:1018c0008e09900040000700ee01900034000700f0
:1018d0008b85e800380007008e0990004000070063
:1018e0009e0990001b18b800890440000a85480032
:1018f000fe019000340007008b85e80038000700e7
:10190000ee019000300007008e0990001b18b8000f
:10191000890440000a8548000a98a30008003a009c
:101920000402420085824a0006034b0087834b0075
:1019300008044c0089844c000a054d008d06e9001e
:1019400084827200850273004c3add0085027200c9
:101950000100320015002000443ade001400b200fd
:101960004538de00cb45dd000b007000c540de00d1
:10197000cb4ddd008b8070004549de00cb55dd008e
:101980000b017100c551de000d037800dc0107007a
:1019900003f0a1000cf0a70003f0a000d301370072
:1019a0001b18b8008502400006834800e0834b0006
:1019b00060044c00070037001b18b8000603400005
:1019c00087834800faff37001b18b80087034000e0
:1019d00008844800e0844c0060054d0000000600cb
:1019e0001b18b8000804400089844800faff37003b
:1019f0000108a300ba013a005800be005801be0019
:101a0000e3ff37000008a300b5013a00090478009d
:101a1000f9ff3700810378001efe07000001be00b9
:101a20006000b8000478a30013003a006220e100cf
:101a300015003e000d0039008301d1000281d30062
:101a40008180d3008301d1000281d3008180d30043
:101a50008301d1000281d3008180d3000538b0001a
:101a6000c42add00f300b2008381720007f0a700f2
:101a700003f0a00000000600f3ff2700f2ff2f0094
:101a80006110b900fbff370003ff2700f7ff3700a5
:101a90008f1fd100c60107008f87e9000000e0001a
:101aa00000000600801feb00c10107008f87e900de
:101ab0000000e000000006001400fa00889fbe004d
:101ac0008a9fbe008c9fbe00040678000004be0002
:101ad0000205be00680047000a90be000890be00e4
:101ae000dc0107006200e1000800be000a01be0040
:101af000040020000b003a001e029000e43fb100f9
:101b00006e009000fe0090000e0990009e0990006b
:101b1000f300b20005fe2300858171000bf0a700e1
:101b200003f0a000040e780070013700809feb00e6
:101b30009f0107008f87e9000000e0000000060019
:101b40002800fa00889fbe008a9fbe008c9fbe00be
:101b500007067800878669000c003b0003047800c4
:101b60008704780008f0a10009f0a100840f50005c
:101b7000858f5800860f5900890f5c0003003300e1
:101b80000cf0a20001003a000cf0a1004301070094
:101b90006400e1005f003200780147006408e10062
:101ba000610032006c014700748557003200be00ae
:101bb0001201be003a04be001a05be001e039000ca
:101bc000be0a90008503530006003d000004fd009e
:101bd0008104fd000205fd008305fd008703ea0086
:101be000050378000df8a30004003200600414001f
:101bf000e0841c0060051d00e0851d006022b80027
:101c00007d0320000d38e1008006eb000b00390059
:101c10004433dd00f300b200830173003900370064
:101c2000848272000d027800e10664008b85d10089
:101c30000a85d3008984d3000884d3008703e90090
:101c4000f7ff3b0008004000898048000a01490076
:101c50008b81490004003b0060001000e080180008
:101c600060011900e08119000358a3000900320047
:101c70008d82720084827200610260008301d10053
:101c80000281d3008180d3000080d3000603e800e6
:101c90001b0037000348a30017003a000600e000cd
:101ca000170034000603e9000d00a30000004800ff
:101cb0008180480002014900838149000348a30054
:101cc0000f003a000600e000090034000603e900b6
:101cd00000004000818048000201490083814900e2
:101ce00001003a000003eb000348a300f5ff3200b7
:101cf0006022b800020037008482720061826600b0
:101d0000ff00070003f0a1000cf0a70003f0a00003
:101d1000f6003700640147006408e10002003a0061
:101d20000df8a300ee003a003200be001201be0022
:101d3000ee0037001400fa00889fbe008a9fbe00a4
:101d40008c9fbe000004be000205be006800470074
:101d50000a90be000890be003e0107000070a70078
:101d60000bf0a1000bf8a30020003a009e099000a0
:101d70000e099000fe0090006e0090009e02900000
:101d80003443200084825200d80032000a003c0014
:101d9000b4fc2f000428e100140034008301d100ba
:101da0000281d3008180d3000080d3008502e80047
:101db000faff3a00cd003700b40020000428e1000b
:101dc00007003c00000040008180480002014900fb
:101dd000838149008502e900faff3a00c300370019
:101de0000300280002002000010037006011b80045
:101df0006000b800bd0037002800fa00889fbe00d0
:101e00008a9fbe008c9fbe0003866b00a300070064
:101e10006400e100440032006408e1004a0032003e
:101e20006100e100460032006108e1004900320033
:101e3000ec0647006000b8003d02be003d03be0056
:101e4000f48657006011b8003d04be003d05be0099
:101e50007d0320000b0037000000a0008d06e90084
:101e6000130032000402420085824a0006034b0040
:101e700087834b0000004000818048000201490038
:101e8000838149000802520089825a000a035b00dc
:101e90008b835b00f0ff3b000802420089824a000e
:101ea0000a034b008b834b008d06e900edff3a00df
:101eb0008482720086827200f707b2008782720005
:101ec00001003200150020001e0490003e0b90001f
:101ed00006035400e63fb0000368a3000700320089
:101ee0000000a7000500a0008301d1000281d300fb
:101ef0008180d3000080d3000603e8008301d10075
:101f00000281d3008180d3000080d3000002eb0067
:101f10000482d2007a00070003f0a1000cf0a700b1
:101f200003f0a00071003700640247006408e1007c
:101f30006b0032003400be003401be00f6ff3700f3
:101f40006108e100660032006011b8006000b8006e
:101f5000f1ff370003ff270002002000fbff3700de
:101f6000889fbe000082700004027100048271002c
:101f70002400320036432000c50020008383cf00b8
:101f80000a0039000541b1008283cf000700390003
:101f90000541b1008183cf00040039000541b10043
:101fa0008083cf00010039000541b10085c3530093
:101fb0006022b800120032000a003b0084827200e6
:101fc000610260008301d1000281d3008180d300cf
:101fd0000080d3000603e8008743e800f7ff3a00db
:101fe00007003700000040008180480002014900de
:101ff000838149000603e9008743e900f9ff3a00bd
:102000003f0007004f04be000000060007f0a200da
:10201000cbfe3700889fbe008a9fbe008c9fbe000b
:102020000404b8000506b8008904460060854e0027
:102030000606b8000a054600e0854e000706b8000f
:102040008b054600040eb800890446000a854e0040
:10205000e0854d00050eb8000a0546008b854e0050
:10206000060eb8008b0546000416b8000a054600a7
:102070008b854e000516b8008b054600041eb8007f
:102080008b0546000800be000a01be004f06be00d8
:102090004f05be004f04be00000006006804470064
:1020a0000294be000094be00fc0447008694be006b
:1020b0008494be00090078006600070008007800dc
:1020c0006400070099007800814f70000b003b000e
:1020d0000800be00860007004f00b1000300370073
:1020e000f3ff2700f2ff2f006110b9004f06be007a
:1020f0004f05be004f04be000080fa00000006003d
:102100001800200057002000080453000d003d0077
:102110000600200097fc2f000740e1001e0034005d
:1021200084827200610260008301d1000281d300c9
:102130008180d3000080d3000804e800f8ff3a0053
:10214000470020006104600005047400040464007a
:102150000d00320061004000e0804800600149004d
:10216000e081490003b8a500070032000603e8003b
:102170006538e10004003a008301d1000281d300f8
:102180008180d3000080d300f87f20000830e10078
:1021900003003500080378006000b8006011b80043
:1021a0004433dd00f300b200830173000000060039
:1021b000889fbe008a9fbe008c9fbe000404be00a4
:1021c0000605be00809fbe00829fbe00560007002d
:1021d000040678000800be000a01be005200070095
:1021e000840678004f03be004f02be008d4f76007c
:1021f0007fb0970013003300f0ff2f008b8f6b0030
:1022000006003b000d0666000c00a7000a00370020
:1022100007f0a600100020000a003700880f5200c7
:10222000898f5a008a0f5b008b8f5b000300390097
:102230001000200001003e000000200007f0a70071
:102240000000ea004f06be004f05be004f04be006e
:1022500000000600800078005002be005003be005f
:102260004439de00f700b200f37f20000301610073
:10227000090032000218e10016003a0085017200e0
:1022800083017300838173000008200015003a0069
:1022900040002000130037008501720083017300a5
:1022a0008381730005003a0004a8be0006a8be00a2
:1022b000100020000b0037000201e9000402420078
:1022c00085824a0006034b0087834b000748a30022
:1022d000f9ff32000740a00004a8be0006a8be0017
:1022e0002000200080009800920098000000060066
:1022f000e48240001078a30007003200640240002e
:102300001178a3003400be001401be0004003200a6
:102310000330a700000006003500be001501be0016
:102320000330a0000000060005ff270005826100c1
:10233000070032000428e1000100320024000500fb
:102340000600070001003a004400050004080500eb
:1023500002000700f9ff3a00140005006f826100d7
:102360008102700085027100850272000000060083
:102370004211880000118800111188000000060039
:10238000889fbe000004be00050037000000fb006f
:102390008900780043000700e10f4000040032008c
:1023a00038407800e04f5000f8ff3a000000eb00a2
:1023b0004f04be0000000600c1a42000881f780062
:1023c000efff0700c1a4200000047800a000200057
:1023d00034000700080078004f0478000000060071
:1023e000881f780000047800380090000002780010
:1023f0001420b200e10f520005003a000002eb0089
:102400001404980028029000040c7800190037008a
:1024100080027800242020002520b2000000eb007c
:10242000848f520016003a00a8009000808f500060
:102430001300320018019000800f5100100032008c
:1024400048009000e1f9070018029000840f500046
:1024500003003200380290000403b30034049800f3
:10246000380090000002eb0014049800280290004d
:10247000040c78000002b200010032000080eb0082
:102480004f04780000000600c0a420000000fa00fd
:1024900068815700cfb89700030107000080fa0059
:1024a00000000600889fbe00010478008084eb00d5
:1024b00038029000e20262003b0032000403780020
:1024c000980290000620b20002003a00e08f52000d
:1024d00035003a000490a00080047800340498008d
:1024e000f90fb200e08f520002003a00a8029000fb
:1024f000050c7800ea8f540005003a000408b20089
:1025000003003a0088007800d0002000e5ff0700b3
:1025100018029000d8029000850f52000b00320084
:102520000402e80015c0b3001404980018027800f3
:10253000094a7800040ce80084a62000054a7800c7
:10254000ea8f540018003a0005003700094078006f
:1025500088007800c9060700800478001200370060
:10256000380290000410b2000f00320018019000f1
:10257000a80090004800900094f90700180290000d
:10258000840f500004003200380290000403b300ae
:10259000340498008084eb000002eb0014049800df
:1025a00028029000040c7800090078004f04be0057
:1025b00000000600d4c6b3000800fa00889fbe00e1
:1025c0000084fb008a9fbe00844f50003400360018
:1025d000698c20004b062000110009000b84d800f4
:1025e000720040004300dd00008044008105780057
:1025f0006022b8000600200007fe2300aa00200089
:102600005001be004000be008dfc07000002be006d
:10261000110009008a85d80080057800e985450009
:10262000c35ddd008b8544000203be0084bf9f00b4
:1026300095bf9f00a6bf9f00b7bf9f003b02be0093
:102640002b03be000fb897009fb897002fb99700d3
:10265000bfb997007afc07000002be001100090014
:102660000a84d800010478004344dd0088844400d3
:102670000203be0084bf9f0095bf9f00a6bf9f00be
:10268000b7bf9f003902be002903be000fb89700f4
:102690009fb897002fb99700bfb997001d0037006a
:1026a000ea4f500013003600aa002000698c200079
:1026b000110009000a84d80001057800690440006f
:1026c0004355dd004344dd00088444008a8444000f
:1026d0006022b8000600200007fe23003800be007c
:1026e0002801be0056fc07003902be002903be00c7
:1026f00008003700648c20004344dd0008044200d9
:102700006022b8000600200007fe23003800be004b
:102710002801be004afc07004f05be004f04be0062
:102720000080fa0000000600d4c6b3000800fa00da
:10273000889fbe008a9fbe00e04f500022003d00ef
:102740000040ea000004fb00844f50000a003400ff
:1027500044062000a9002000110009000404d8004c
:102760006a8c2000110009008900d800e9004000af
:10277000c308dd0020003700ea4f50000f0034008e
:10278000a4002000110009000404d800648c20007b
:10279000690040004300dd0000004200430cdd0002
:1027a000080242005001be004000be005403be00bb
:1027b0004402be0022fc0700370037004344dd001e
:1027c000648c2000310037000004fb00844f50006f
:1027d0002300340044062000a90020001100090055
:1027e0000404d8006a812000110009008900d80083
:1027f000e9004000c308dd00810045008b0920008e
:102800008a8545003102be002103be003b00be00a8
:102810002b01be000afc07000002be0011000900e7
:102820000904d800010478004344dd000805450090
:102830000203be0084bf9f0095bf9f00a6bf9f00fc
:10284000b7bf9f003a02be002a03be000fb8970030
:102850009fb897002fb99700bfb99700d5ff3700f1
:10286000ea4f500007003400a400200011000900c6
:102870000404d80064812000690040004300dd00aa
:10288000c5ff37004344dd00648120000804420096
:102890003800be002801be004f05be004f04be0038
:1028a0000080fa0000000600ef05b000889fbe001f
:1028b0008a9fbe008c9fbe00000678008e1f7800a5
:1028c0000007eb00e19f9f0082af9f006000b8000f
:1028d0006011b80080a79f0091a79f00a2a79f004a
:1028e000b3a79f00d9053700ef98970054c2b300f3
:1028f0008100e800e19f9f00844f500006003a00ed
:10290000810278008006eb0007c3b30000c2b30069
:10291000b1c2b3000e0037003c0290000404b200c4
:10292000040032001c027800004a7800040ee8001f
:10293000050037000000fb008c007800d9fe07007e
:10294000e10f4000c10532000e07e800bf05370067
:1029500005037800d2c2b30035427800824f52009e
:102960000900320005003c00804f52000800320090
:10297000814f52000c003a0007003700874f520089
:1029800009003a00060037000d30a000f0ff3700c4
:102990000d00a000eeff37000d10a000ecff370087
:1029a0000d20a000eaff3700e2826600010032003d
:1029b0000d00a100e8826600010032000d20a10098
:1029c0008402fb000503b100e98f52000d003e00b8
:1029d000860278008003eb003502fb006a3bb900f9
:1029e0000403b100860342001502fb0005037800d2
:1029f0000403b100e90f5200f7ff360097b79f00bc
:102a00000a0037008002eb0095b79f00a5c2b30013
:102a1000854f520005003a008fab97000603e8008f
:102a20004700780087af9f0090b79f00e4c2b300d3
:102a3000964f120017003a000de0a00064425200c9
:102a4000d64f120003003200060278008003eb002c
:102a5000090037000fa997000603e800c2017800bb
:102a600082af9f00d3af9f00c7c6b3000d003700f1
:102a70006a3bb9008683420004037800b402fb007d
:102a80000503b100e98f5200f9ff3600d7af9f0070
:102a9000f5ff37000002eb000dc0a000d4af9f008f
:102aa000f1ff370086027800354278000503780090
:102ab000874f52002d003200e59f9f00c5c6b3002e
:102ac000854f520014003c00e8c25200854f52006e
:102ad0002400320009003c00ecc25200854f520035
:102ae0002e003200ebc24200854f52009a003200a5
:102af000e04f52005a053200b800370065c6b300f7
:102b0000854f52001f003200e3c24200854f520041
:102b1000b2003a001300370035c7b300854f5200aa
:102b20002200320007003c00e4c25200854f5200f0
:102b3000170032008542e800854f5200a7003a0096
:102b40001600370055c7b300854f5200a800320069
:102b5000e3c24200854f5200a0003a00e4579f00b4
:102b600010003700e4579f00a3003700f082660092
:102b70000401200001003200040028008d067200cc
:102b8000c8ff3700e4579f000da0a0009a0037004f
:102b9000e4579f000d60a00097003700e4579f00a6
:102ba0000d50a0000d70a000930037008faa970071
:102bb000e4579f004502780085af9f000404780029
:102bc000e00f520001003a0088a32000880278003c
:102bd0000002eb00010037000402e80065437a00c0
:102be000e04f5300fcff3a00840478005fab97008d
:102bf000e00f530003003200890f53000100310041
:102c0000860478000002eb009fb39700898f530081
:102c10000100360009825300e8866600ddaf9f00a0
:102c20000d007800e00f50002c003a008406780078
:102c300004c2b30010003700bc0290000504b200cb
:102c4000040032009c027800844a7800050ee800f7
:102c50000700370084bf9f008c007800000220002e
:102c600010fe07000fba9700e10f4000010032008c
:102c70000e07e8008d06e900e08f5600eeff3a00ef
:102c80000082eb00150037003c0290000404b20003
:102c900009003200080278001c037800b442780072
:102ca000054b780004047800060ee800e0cf5200df
:102cb00008003a000a003700080278008c0078000b
:102cc0003400fb0004047800f6fd0700e10f40002b
:102cd000030032000e07e800010037008406780088
:102ce000090278008404e900e00f5200e6ff3a0090
:102cf0000d027800dfa89700e08f5000d304320067
:102d00008406780004c2b30010003700bc029000b3
:102d10000504b200040032009c027800844a780066
:102d2000050ee8000700370084bf9f008c00780084
:102d300000022000dbfd07000fba9700e10f400002
:102d4000010032000e07e8008d06e900e08f560012
:102d5000eeff3a00bd0437000fa99700f08266002d
:102d60004202780082af9f0004007800cf80de002e
:102d7000010178008201780090af9f00a1af9f0011
:102d8000b2af9f00c3af9f004800de00480add00dd
:102d900000007200e0579f00e08f520009003200ef
:102da000e04f500007003200e14f400005003200c4
:102db000afd29700f0579f00855f9f002900200049
:102dc000030037002fd3970019002000f6579f000b
:102dd00078f92f000f04440084ff3700e4579f0068
:102de00068f92f000f044400190020007fff37000e
:102df000e4579f000d0cb3000470200004826600ad
:102e000065023200040021000482660002003200e4
:102e100067002000d7af9f00708266000900320073
:102e20000faa97004401be004400be0084af9f007b
:102e300090af9f00a1af9f00b2af9f00c3af9f00b4
:102e40000a0037008faa97004500be0085af9f009b
:102e5000f0fa07000002be000203be0094af9f001c
:102e6000a5af9f00b6af9f00c7af9f006022b8001c
:102e70006033b8001fa89700afa897003fa997003c
:102e8000cfa9970002fb0700e00f50000a003d00a9
:102e90001fa89700afa897003fa99700cfa9970058
:102ea00003f0a20090af9f00a1af9f00b2af9f00c0
:102eb000c3af9f003d00b3000002eb001fa89700c6
:102ec000afa897003fa99700cfa99700d48f9f0084
:102ed0006022b8006033b800f2fa0700e00f50003b
:102ee00034003200a4f92f000f0242001fa89700ff
:102ef000afa897003fa99700cfa99700eefa070067
:102f00005f889700a40020000000e9006300b9007a
:102f1000110009000400d800d08f9f00e00f50007e
:102f200002003d000000e900d08f9f005f8c9700f9
:102f30000840ea00fcfd07001faa9700afaa97000f
:102f40003fab9700cfab97003dfa07000002be00f1
:102f50000203be0084a79f0095a79f00a6a79f001d
:102f6000b7a79f006022b8000600200007ff2300db
:102f7000c7fa0700e00f500002003d000804e90016
:102f80000b0037006022b800060020004702240032
:102f90000fa097009fa097002fa19700bfa19700b7
:102fa000e2fa0700e00f5000020035000804e800d4
:102fb000d88f9f00dfaa9700f88f52000f003c00c7
:102fc000054078007bfd07000002be000203be0042
:102fd0001fa89700afa897003fa99700cfa9970017
:102fe000d7fa07000002be000203be0094af9f00a4
:102ff000a5af9f00b6af9f00c7af9f005f8c970043
:10300000e90f540015003c006022b8006033b8009e
:103010001fa89700afa897003fa99700cfa99700d6
:10302000a0fa0700e00f5000320032001fa89700fe
:10303000afa897003fa99700cfa997003dfb0700d5
:10304000e00f5000e08f5800e00f5900e08f59006a
:1030500028003a00e10f540026003400040020004c
:1030600005002e00b6e02200170124000fa09700f3
:103070009fa097002fa19700bfa1970084fa070097
:10308000e00f500002003d007304540001003700bf
:1030900072045400d88f9f002f589700a2fd07009c
:1030a0000002be000203be001fa89700afa8970051
:1030b0003fa99700cfa9970084a79f0095a79f00dd
:1030c000a6a79f00b7a79f004bfb070019fb0700af
:1030d0000205be000004be006000b8006011b80028
:1030e00090af9f00a1af9f00b2af9f00c3af9f0002
:1030f000170037001fa89700afa897003fa99700b7
:10310000cfa997000bfb07000205be000004be001c
:1031100093fb07000002be000203be001fa8970039
:10312000afa897003fa99700cfa99700b7fb07006a
:103130000002be000203be0094af9f00a5af9f0037
:10314000b6af9f00c7af9f000002eb00d48f9f0077
:10315000e197200010c0b300080037003102be0024
:103160003103be000440e10005c8e10006d0e100e3
:1031700007d8e100030039000040e800f44f500098
:10318000f6ff3a009fb297005f8a97005fab970007
:1031900004825200e0579f00860252000002fb00aa
:1031a0000482520094b79f00e00f530002003200e7
:1031b0000402e90094b79f006382660003003200b6
:1031c0009fb397008703e90097b79f00648266006a
:1031d0004500320062826600e1826600e00f520024
:1031e000110032003c0290000404b20008003200da
:1031f0001c037800b4c2b300e08f5200010032001b
:1032000004c2e800044b7800060ee8001500370001
:10321000b0022000e08f5200010032000080e80080
:103220008c0078000c003700e08f52002000320044
:103230003c0290000404b200050032009c027800b9
:1032400004c2b300844a7800050ee8000500370088
:103250008c0078000002200092fc0700e10f400083
:10326000130032000e07e800110037003c02900006
:103270000404b200040032001c027800054a780001
:10328000040ee80007003700f5b79f008c007800b7
:103290000003200083fc0700ffb29700e10f40000d
:1032a000010032000e07e8008904e900060037003b
:1032b000c8a79f00d9a79f00eaa79f00fba79f0070
:1032c0009fb4970005c3b300e08f5400e7ff3c00b4
:1032d00099b79f004fa49700dfa497006fa59700b0
:1032e000ffa597006e003700688266001f003a0055
:1032f000110037003c0290000404b20004003200c8
:103300001c027800054a7800040ee8000700370028
:10331000f5b79f008c0078000002200061fc0700d8
:10332000ffb29700e10f4000010032000e07e800f5
:103330008904e90006003700c8a79f00d9a79f00ad
:10334000eaa79f00fba79f009fb4970005c2b300a8
:10335000e08f5400e7ff3c0099b79f004fa497000f
:10336000dfa497006fa59700ffa597006282660013
:10337000e1826600e00f5200110032003c02900032
:103380000404b200080032001c037800b4c2b30089
:10339000e08f52000100320004c2e800044b7800c4
:1033a000060ee8003d003700b0022000e08f52001a
:1033b000010032000080e8008c0078003400370003
:1033c000e08f5200360032003c0290000404b2004c
:1033d000050032009c02780004c2b300844a7800e1
:1033e000050ee8002d0037008c0078000002200058
:1033f000270037003c0290008502fb000404b20065
:103400001300320062972000c32add0085024100cc
:103410009c0078005503be004502be00c1a79f0076
:103420000800be000a01be0039f80700a400200011
:10343000050020006033b8003cf807004fa2970059
:1034400005c3b300054a4000040ee800130037002e
:1034500066972000c32add00850243000800be00f5
:103460000a01be005503be004502be0028f8070051
:10347000a4002000050020006033b8002bf80700ee
:103480008c00780004032000000242000400780051
:1034900004fc0700e10f4000010032000e07e800c5
:1034a0006f5297008442e900e5579f00e04f5200b9
:1034b000d0ff3a00110037003c0290000404b20033
:1034c000040032001c027800084a7800040ee8006c
:1034d000050037008c00780000032000f1fb070096
:1034e000e10f4000010032000e07e8005f8a9700fc
:1034f0000402e900d48f9f000100370008c3b30025
:103500005f8a9700e00f5200ebff3c00dfab9700b3
:10351000f28f53000300340024c1b300e4579f002e
:10352000020037002fd89700e0579f006f52970096
:10353000dfa897000403fb0006835000c6a79f0086
:10354000e04f52000e0032003c0290000404b20032
:10355000050032001c027800e5c2b300054a78007d
:10356000040ee800050037008c007800e00220001f
:10357000ccfb0700e10f4000010032000e07e8001d
:103580006f50970068fc07000002be000203be00f7
:103590001fa89700afa897003fa99700cfa9970051
:1035a000a7f80700e3f90700350037003c02900058
:1035b0008502fb000404b200130032006397200070
:1035c000c32add00858241001c0178005503be003e
:1035d0004502be00d2af9f000800be000a01be0037
:1035e000cbf70700a4002000050020006033b800de
:1035f000cef707005faa970005c3b300054a400055
:10360000040ee8001300370066972000c32add008f
:10361000850243000800be000a01be005503be003b
:103620004502be00baf70700a400200005002000f4
:103630006033b800bdf707008c0078000403200059
:10364000000242000400780096fb0700e10f4000f2
:10365000010032000e07e800ef539700609720004a
:103660000702fb004322dd00040240000800be0008
:103670000a01be005403be004402be00abf70700bf
:103680006f5297000205be000004be008442e900ac
:10369000e5579f00e04f5200c4ff3a001100370089
:1036a000bc0290000504b200040032009c027800c5
:1036b000844a7800050ee8000700370084bf9f00a9
:1036c0008c0078000003200076fb07000fba9700fb
:1036d000e10f4000010032000e07e8008904e90014
:1036e00006003700cfa49700d0af9f00e1af9f0046
:1036f000f2af9f0083b79f0004c3b300e08f540074
:10370000e7ff3a005fac9700efac97007fad970002
:103710008fb59700e88666004c0232009fb0970094
:10372000e08f5000490234000802be000a03be00c8
:103730000dc2b300810478003c0090000004b20088
:10374000040032001c0078000d487800000ee800ec
:103750000d00370084bf9f00f5b79f00d6b79f00cc
:10376000e7b79f008c007800000220004dfb0700a7
:103770000fba9700ffb297005fb39700efb39700bf
:10378000e10f4000010032000e07e8008904e90063
:10379000e9ff3a002d0237008d027800050cb200d7
:1037a0002a003a00e08f560005003d000fa997005f
:1037b0004205be004204be0082af9f0016003700e3
:1037c000708266000e0032000fab97004602be000a
:1037d000c4979f00d5979f0086af9f001602900068
:1037e0004fa2de00e4979f00f4979f004f9497004c
:1037f000df9497006f959700ff95970006003700bc
:103800000fa897004004780080af9f00cfc4de006f
:10381000090578008a057800e00f5400e08f5c000d
:10382000e00f5d00e08f5d0023003d006022b800e6
:103830006033b8003d00b3000804520089845a0088
:103840000a055b008b855b001b003700e08f56008c
:1038500005003d008fa897004105be004104be0051
:1038600081af9f0014003700f08266000c00320028
:103870008faa97004501be00a4979f0082979f00e2
:1038800093979f00b4979f0085af9f000f94970078
:103890009f9497002f959700bf95970006003700db
:1038a0008fab97004704780087af9f000900200086
:1038b0000a0020000b0020005fa89700e00f5000d6
:1038c00009003a0011002000d1af9f00e00f540022
:1038d000e08f5c00e00f5d00e08f5d0002003200d1
:1038e0000001eb00d2af9f008d017800040420009e
:1038f000030cb20093af9f00848f51002c00320064
:1039000003003c00e08f5100080032003c0037000b
:10391000040820009faa9700848f520010003200f4
:10392000040c2000848f520035003a00e1972000fb
:1039300010c0b3003102be003103be000440e100fc
:1039400005c8e10006d0e10007d8e1002b003900ee
:103950000040e800f44f5000f6ff3a00270037001f
:1039600010c0b30004012000050020006033b8003f
:103970000440e10005c8e10006d0e10007d8e100fd
:103980001e003900410020000402d0008582d200d0
:103990000683d2008783d2008100e900faff3a0053
:1039a0000040e800f04f5000f1ff3a0013003700ec
:1039b00010c0b30084002000050020006033b80070
:1039c0000440e10005c8e10006d0e10007d8e100ad
:1039d0000a003900320020000402d0008582d200a3
:1039e0000683d2008783d2000201e900faff3a0081
:1039f0000040e800f54f5000f1ff3a00e0579f000b
:103a0000ef519700dfaa97000302fb00850f5200d9
:103a100002003d00e5579f00040037005fab9700b0
:103a2000840f530001003d00d4af9f009fb3970067
:103a3000e08f53000400320063826600020032000f
:103a40008703e90097b79f00040024000482660002
:103a5000090032001fb09700dfa89700810f5000c7
:103a6000030034000100500090b79f0002003700af
:103a70000001eb0092b79f00ef5197008002eb002e
:103a80000302fb00c5a79f001fb39700840f5300dc
:103a90000200340004025300c4a79f006482660041
:103aa00045003200e282660061826600e08f5200cb
:103ab00011003200bc0290000504b2000800320080
:103ac0009c027800b6c2b300e00f52000100320041
:103ad00006c3e800864a7800050ee80015003700a6
:103ae000b0022000e00f5200010032000080e80028
:103af0008c0078000c003700e00f52000e003200fe
:103b00003c0290000404b200050032001c02780060
:103b100005c2b300054a7800040ee800050037002e
:103b20008c007800000220005efa0700e10f4000e0
:103b3000010032000e07e800cfa39700e08f53008a
:103b40006300320098b79f00a9b79f00bab79f00e3
:103b5000cbb79f0004c3b30087047800bc02900079
:103b60000504b200040032009c027800844a780008
:103b7000050ee8000700370084bf9f008c00780026
:103b80000003200047fa07000fba9700e10f40003a
:103b9000010032000e07e8008904e900efff3a0057
:103ba000c9a79f001fb49700afb497003fb5970017
:103bb000cfb5970046003700cfa09700e08f5000a8
:103bc0001e003200688266001c003a0098b79f0011
:103bd000a9b79f00bab79f00cbb79f00cfa49700ab
:103be00004c2b300bc0290000504b200040032001d
:103bf0009c027800844a7800050ee8000700370030
:103c000084bf9f008c0078000002200025fa070086
:103c10000fba9700e10f4000010032000e07e800e4
:103c20008904e900efff3a00c9a79f001fb497007d
:103c3000afb497003fb59700cfb59700e28266001a
:103c400061826600e08f520011003200bc029000d9
:103c50000504b200080032009c027800b6c2b3002e
:103c6000e00f52000100320006c3e800864a7800e7
:103c7000050ee80015003700b0022000e00f5200ea
:103c8000010032000080e8008c0078000c00370052
:103c9000e00f52000e0032003c0290000404b2001b
:103ca000050032001c02780005c2b300054a780006
:103cb000040ee800050037008c00780000022000a8
:103cc000f8f90700e10f4000010032000e07e8009c
:103cd000dfa89700659720000102e90098b79f00d0
:103ce000a9b79f00bab79f00cbb79f004221dd0064
:103cf0006323b900929f9f004322dd008601780074
:103d000085024200839f9f00f59f9f00708266009e
:103d10008d027800f48f9f000502b200e58f9f00ae
:103d2000a3003700dfa897001fa997008100e900d2
:103d300003042000d1af9f00830f510073003200b5
:103d400003003c00e00f5100080032007e00370005
:103d5000040820009faa9700848f5200560032006a
:103d6000040c2000848f520077003a00e08f560048
:103d70001f003d007f9b97001fb09700afb09700da
:103d80003fb19700cfb197003604be002605be00b4
:103d90000802be000a03be00ddf507000802be00ef
:103da0000a03be00e0579f000000fb00cf80de004a
:103db000010178008201780062f607001fb29700c7
:103dc000afb297003fb39700cfb397000002520005
:103dd00081825a0002035b0083835b0094b79f00db
:103de000a5b79f00b6b79f00c7b79f002e0037004a
:103df000ff8a9700e08f5200220032007f9b9700dd
:103e00001fb29700afb297003604be002605be0071
:103e10000400be0084bf9f00f5b79f000801be00ec
:103e200071f607000801be00e0579f000000fb008c
:103e3000cf80de007cf607000fba9700ffb2970034
:103e40000001520081815a000002eb00a29f9f00f6
:103e5000b39f9f00d49f9f008001eb00c39f9f00f2
:103e60002f989700bf9897004f999700df99970078
:103e700090b79f00a1b79f00b2b79f00c3b79f0044
:103e800009003700ff9897001fb1970011027800d2
:103e9000110009000481d800a400200011000900cd
:103ea0000480d800e1579f00ef5197000343b00012
:103eb000e3579f002400370074a22000ef8a970088
:103ec000e08f52000100320064a120001fb0970073
:103ed000afb097003fb19700cfb197001f9b9700fd
:103ee0000603e900050033008301d1000281d300fd
:103ef0008180d3000080d300f9ff37006f0060009d
:103f000064407800e0579f000f0037001fb2970011
:103f1000afb297003fb39700cfb397000f989700c9
:103f20000000e900050033008703d1000683d300b9
:103f30008582d3000482d300f9ff37006742620014
:103f40000443b000e4579f003c0290000404b20018
:103f5000070032009c0278006f529700844a780074
:103f6000050ee800e04f520007003a000700370056
:103f7000ef5097000100fb008c00780049f9070022
:103f8000e10f4000010032000e07e8001f99970082
:103f90008f9997007f9a970064015100e381510047
:103fa00068025200929f9f00839f9f00f49f9f0092
:103fb000dfaa9700e08f52005aff3a001fb4970023
:103fc000afb497003fb59700cfb59700e88666007d
:103fd0001e0032004fa39700e00f53001b00340077
:103fe0000802be000a03be00cfa497000dc2b300b2
:103ff0003c0090000004b200040032001c00780075
:104000000d487800000ee8000d00370084bf9f00c7
:10401000f5b79f00d6b79f00e7b79f008c007800e8
:10402000000220001ff907000fba9700ffb29700a7
:104030005fb39700efb39700e10f4000010032003b
:104040000e07e8008904e900e9ff3a00ef9b9700ba
:1040500017407800e0579f00e04f500022fa3a00e6
:104060000e0078004f0778004f06be004f05be00d7
:104070004f04be00ef05b100000006000200fa0088
:10408000889fbe0001047800a0ff9f0038029000c6
:10409000840278000504b200020032000000fb0038
:1040a00035003700e202620005003a000403b30065
:1040b00015049800340498000080eb002e003700af
:1040c000d8049000e08f540006003a00120020004f
:1040d000e680570048009000bcf2070019049800e1
:1040e00023003700a8029000e08f520008003a0039
:1040f000c5a620000430a00025049800050c780017
:1041000034049800250020005504980015049800f8
:1041100018019000a800900048009000abf2070042
:10412000280290008082eb0015049800affa9700f7
:10413000054a7800040ce8002ffa9700ea4f520075
:104140000b003a00380290000410b2000800320060
:1041500018019000a8009000480090009bf2070012
:104160000002eb00a802900014049800050c7800ef
:104170002ffa97000400fb004f04be000080fa00f5
:044180000000060035
:020000040000fa
:10418400202d00002d2d00002d2d00002d4c0000b1
:104194004142000020300000382d00002d2d000089
:1041a4002d2d00002d000000536500007458000000
:1041b4003a250000346400002c2000005365000000
:1041c400745900003a250000346400000a0000001d
:1041d400583a000025340000642c000020590000e7
:1041e4003a250000346400000a0000004a58000028
:1041f4003d250000346400002c2000004a590000d2
:104204003d250000346400000a0000004b700000eb
:104214005f7800003d2500002e330000662c00006e
:104224004b7000005f7900003d2500002e33000034
:10423400660a0000004b0000695f0000783d000042
:10424400252e0000336600002c4b0000695f00003f
:10425400793d0000252e0000336600000a000000ae
:104264004b6400005f7800003d2500002e33000001
:10427400662c00004b6400005f7900003d250000bf
:104284002e330000660a0000000000004a6f0000a0
:104294007973000074690000636b0000206d0000f6
:1042a4006178000020580000203d0000200000003c
:1042b40025340000640000004a6f00007973000098
:1042c40074690000636b0000206d0000696e0000db
:1042d40020580000203d0000200000004a6f00002c
:1042e4007973000074690000636b0000206d0000a6
:1042f4006178000020590000203d000020000000eb
:104304004a6f00007973000074690000636b000059
:10431400206d0000696e000020590000203d00005f
:1043240020000000546f0000756300006820000046
:10433400586d000061780000203d00000025000059
:1043440034640000005400006f75000063680000ce
:10435400205800006d6900006e2000003d00000040
:10436400546f00007563000068200000596d000060
:1043740061780000203d0000005400006f750000cb
:1043840063680000205900006d6900006e20000081
:044394003d000000e8
:020000040000fa
:104398000800fa003007980014002000140798005d
:1043a8002d0037000002eb00040f780023003700cf
:1043b8001e02780004024200be02900004824200fd
:1043c800940278001e02e800040242003e039000b6
:1043d8000402430014027800848f5200160036004d
:1043e8001e02780004024200be02900004824200cd
:1043f80094027800250798001e0278000402420003
:10440800be029000848242001e02e80004024200bc
:104418003e0390000402430014027800840a7800e6
:104428001e02e80004024200be029000048242001c
:10443800ae029000050a78001e0fe8001e029000e8
:104448006a0212009e0f5200d9ff3e001e02900021
:104458000402e800140798001e029000e90f5200b9
:10446800d0ff36003e0290006a0242001402780033
:10447800040078000080fa00000006001600fa0028
:104488006202470009000900001aeb000002eb0075
:10449800040f7800080037003c010700800278000c
:1044a8001e02780004024200040247000482e80069
:1044b800050a78001e0fe8001e027800e90f520076
:1044c800f5ff36000e82e80004007800b0ff070010
:1044d80000027800040078000080fa00000006005e
:1044e8000200fa00004f78001e427800e04f5200a8
:1044f8000e003200da22a90000000000da42a8000b
:1045080000000000da62a800441b80000400a0003c
:104518000410a0000420a0000430a000441b880060
:1045280000402f0011002000d1ef0700d3ff070043
:1045380000027800040078000080fa0000000600fd
:104548000200fa00004f78001e427800e04f520047
:104558000e003200da22a80000000000da42a900aa
:1045680000000000da62a900441b80000400a000db
:104578000410a1000420a1000430a000441b8800fe
:1045880000402f0011002000b9ef0700bbff070013
:1045980000027800040078000080fa00000006009d
:1045a8000000fa0061e3a900c722a8002d23a90092
:1045b8006d23a900c7e2a8006de3a9002de3a900b7
:1045c800d822a900d842a900d862a9006143a8004e
:1045d800041b80000480a1000490a100041b880033
:1045e800041b80000450a0000460a0000470a00018
:1045f800041b88000002eb00141b880065e3a90077
:10460800251b800004f0210005027200241b88008d
:1046180024c0b3000443780045362000864a780059
:1046280061e3a80080c1b3004e0307000040eb001f
:104638002803070090c1b3004a03070000c2b30073
:104648002403070040192a0059f70700c0a42000d6
:1046580061f707000a0037001c0207000002780013
:104668000041eb0084007800608020009b01070077
:10467800000278008400780080c0b300800607003c
:104688005001070000427800e04f5200f2ff32006c
:1046980010c0b30092ff070000027800e5802000f8
:1046a8009402980080c1b3002e030700e0c4b30051
:1046b8000803070090c1b3002a03070000c2b30033
:1046c80004030700e480200014029000841f78008f
:1046d800141a2a00841f780069f70700e487570036
:1046e800c0a420003cf707000000000035010700c7
:1046f80000427800e04f5200fcff3a0080c1b3004e
:10470800180307000040eb00f202070090c1b30055
:104718001403070080c2b300ee020700501a2a00f3
:1047280023f70700c0a420002bf707000a00370072
:10473800e6010700000278000041eb0084007800e1
:10474800608020006501070000027800840078007e
:1047580080c0b3004a0607001a010700004278002b
:10476800e04f5200f2ff320010c0b3005cff0700b8
:1047780000027800e5802000840a780080c1b30038
:10478800f8020700e0c4b300d202070090c1b300ea
:10479800f402070080c2b300ce020700e4802000c4
:1047a80014027800841f7800141a2a00841f7800e5
:1047b80033f70700e4875700c0a4200006f7070076
:1047c80000000000ff00070000427800e04f5200a0
:1047d800fcff3a0080c1b300e20207000040eb0092
:1047e800bc02070090c1b300de02070000c3b3009b
:1047f800b8020700201b2a00edf60700c0a420001d
:10480800f5f607000a003700c20107000002780029
:1048180012c0b30084007800608020002f010700d8
:10482800000278008400780070c0b3001406070006
:10483800e400070000427800e04f5200f2ff320027
:1048480010c0b3003eff070000027800e58020009a
:10485800b402980080c1b300c2020700e0c4b300ec
:104868009c02070090c1b300be02070000c3b3005a
:1048780098020700e480200034029000841f78002a
:10488800141a2a00841f7800fdf60700e4875700f1
:10489800c0a42000d0f6070000000000c9000700ef
:1048a80000427800e04f5200fcff3a0080c1b3009c
:1048b800ac0207000040eb008602070090c1b3007d
:1048c800a802070080c3b30082020700f01b2a0079
:1048d800b7f60700c0a42000bff607000a0037009b
:1048e8008c0107000002780012c0b3008400780031
:1048f80060802000f900070000027800840078003a
:1049080070c0b300de050700ae0007000042780063
:10491800e04f5200f2ff320010c0b30008ff07005a
:1049280000027800e5802000a402980080c1b3004e
:104938008c020700e0c4b3006602070090c1b30010
:104948008802070080c3b30062020700e4802000e9
:1049580024029000841f7800141a2a00841f78000b
:10496800c7f60700e4875700c0a420009af607009e
:10497800000000009300070000427800e04f52005a
:10498800fcff3a000080fa00000006000000fa0070
:104998006023a80000000000041b80006102620080
:1049a800e00f5200fcff32006003a900041a8000e7
:1049b800040078000080fa00000006000800fa00f1
:1049c800889fbe001007980021079800624798004a
:1049d80044382000040f78006e429000e04f5200e7
:1049e8003a0032001e029000a40290002e029000ad
:1049f800848f5200030036001e029000a40290002b
:104a0800250798001e029000b40290002e02900024
:104a1800848f5200030031001e029000b4029000ff
:104a2800250798001e02900024029000ae02900014
:104a380004825200050020000400be0091f0070027
:104a48000002be009299290093f923000400be00d9
:104a58008ef007000002be000404be001e02900093
:104a6800b40290001e0290002402900004825200ba
:104a7800050020000400be0082f007000002be000e
:104a88000401be000800be00b4f007000002be002a
:104a98006266260063f623000400be00f2f00700f9
:104aa8000002be0002002000a34724000400be004c
:104ab80076f007000002be000400be0047f10700c0
:104ac8000002be00040f7800390037001e02900073
:104ad800940278002e029000848f52000300360062
:104ae8001e02900094027800250798001e0290008c
:104af800940290002e029000848f5200030031002f
:104b08001e02900094029000250798001e02900053
:104b180014027800ae0290000482520005002000c2
:104b28000400be0057f007000002be009299290059
:104b380093f923000400be0054f007000002be00f1
:104b48000404be001e029000940290001e02900011
:104b58001402780004825200050020000400be0000
:104b680048f007000002be000401be000800be00b5
:104b78007af007000002be006266260063f6230092
:104b88000400be00b8f007000002be0002002000ca
:104b9800a34724000400be003cf007000002be004a
:104ba8000400be000df107000002be00040f7800eb
:104bb8001e027800040078004f04be000080fa004e
:104bc800000006000200fa000002eb00040f780063
:104bd800070037001e0fe800045327009e027800e4
:104be800848f520002003a0014c0b3000600370058
:104bf800d51680000410200004826200e00f5200e5
:104c0800f4ff32000042eb00044078000080fa0014
:104c1800000006000200fa000002eb00040f780012
:104c2800070037001e0fe800045327009e02780093
:104c3800848f520002003a0014c0b3000600370007
:104c4800a51680000440200004826200e00f520094
:104c5800f4ff32000042eb00044078000080fa00c4
:104c6800000006000000fa0061e3a900c682a8005f
:104c78006c83a900c6a2a8006ca3a9006143a80080
:104c8800041b80000480a1000490a100041b88007c
:104c9800041b80000450a0000460a0000470a00061
:104ca800041b88000002eb00141b880065e3a900c0
:104cb800251b800004f0210005027200241b8800d7
:104cc80024c0b3000443780045362000864a7800a3
:104cd80061e3a8000080fa00000006000800fa005e
:104ce800889fbe0010079800210798006247980027
:104cf8006e429000e04f5200380032001e029000d1
:104d0800a40290002e029000848f52000300360007
:104d180044382000040f7800290037001e02900054
:104d280024029000ae029000048252000500200088
:104d38000400be00d3ef07000002be0092992900cc
:104d480093f923000400be00d0ef07000002be0064
:104d58000404be001e029000b40290001e029000df
:104d68002402900004825200050020000400be00c6
:104d7800c4ef07000002be000401be000800be0028
:104d8800f6ef07000002be006266260063f6230005
:104d98000400be0034f007000002be00020020003c
:104da800a34724000400be00b8ef07000002be00bd
:104db8000400be0089f007000002be00040f78005e
:104dc800448320009e027800848f52003a00360007
:104dd80044832000040f7800370037001e0290003b
:104de800940278002e029000848f5200030036004f
:104df80044382000040f7800290037001e02900074
:104e080014027800ae0290000482520005002000cf
:104e18000400be009bef07000002be009299290023
:104e280093f923000400be0098ef07000002be00bb
:104e38000404be001e029000940290001e0290001e
:104e48001402780004825200050020000400be000d
:104e58008cef07000002be000401be000800be007f
:104e6800beef07000002be006266260063f623005c
:104e78000400be00fcef07000002be000200200094
:104e8800a34724000400be0080ef07000002be0014
:104e98000400be0051f007000002be00040f7800b5
:104ea800448320009e027800848f5200020036005e
:104eb80044832000040f78001e0278000400780064
:104ec8004f04be000080fa00000006000000fa004f
:104ed800441b80000400a1000410a1000420a000cd
:104ee8000430a100441b88006023a80000000000d3
:104ef800041b800061026200e00f5200fcff3200d8
:104f08006003a900041a8000040078000080fa00f9
:104f1800000006000000fa00441b80000400a00006
:104f28000410a1000420a0000430a100441b880044
:104f38006023a80000000000041b800061026200da
:104f4800e00f5200fcff32006003a900041a800041
:104f5800040078000080fa00000006000200fa0051
:104f68002a83a800d902a800d342a8000002eb00b7
:104f7800040f78000040eb00fa00070080c1b3007e
:104f8800f80007000040eb00d200070090c1b30012
:104f9800f40007000040eb00ce00070080142a0050
:104fa80003f50700c0a420000bf507001c0037001c
:104fb800c6ff070000027800658020009402980070
:104fc800743e20009e027800848f52001300360041
:104fd80080c1b300e300070060c6b300bd0007004e
:104fe80090c1b300df0007000040eb00b9000700e4
:104ff8006480200014029000841f7800a4152a0001
:10500800841f78001ef50700e4875700c0a420001d
:10501800f1f407000002eb00040f78001e0fe8000f
:10502800e8fe070000427800e04f5200e0ff32003f
:105038000002eb00040f780000000000e1fe07000a
:1050480000427800e04f5200fcff3a0080c1b300f4
:10505800c40007000040eb009e00070090c1b300a9
:10506800c000070080c0b3009a000700e0152a00be
:10507800cff40700c0a42000d7f407001c003700b5
:1050880092ff07000002780065802000840a7800fb
:10509800743e20009e027800848f52001300360070
:1050a80080c1b300af00070060c6b30089000700e5
:1050b80090c1b300ab00070080c0b30085000700b3
:1050c8006480200014027800841f7800a4152a0048
:1050d800841f7800eaf40700e4875700c0a4200082
:1050e800bdf407000002eb00040f78001e0fe80073
:1050f800b4fe070000427800e04f5200e0ff3200a3
:1051080000000000affe070000427800e04f5200a8
:10511800fcff3a0080c1b300920007000040eb009a
:105128006c00070090c1b3008e00070000c1b300f7
:105138006800070000172a009df40700c0a420009b
:10514800a5f407001c00370072ff07000002780072
:1051580065802000b4029800743e20009e0278000a
:10516800848f52001300360080c1b3007d00070011
:1051780060c6b3005700070090c1b300790007006c
:1051880000c1b3005300070064802000340290007f
:10519800841f7800a4152a00841f7800b8f407003b
:1051a800e4875700c0a420008bf407000002eb003e
:1051b800040f78001e0fe80082fe07000042780006
:1051c800e04f5200e0ff3200000000007dfe0700c3
:1051d80000427800e04f5200fcff3a0080c1b30063
:1051e800600007000040eb003a00070090c1b300e0
:1051f8005c00070080c1b3003600070020182a00b1
:105208006bf40700c0a4200073f407001c003700eb
:1052180040ff07000002780065802000a402980083
:10522800743e20009e027800848f520013003600de
:1052380080c1b3004b00070060c6b300250007001b
:1052480090c1b3004700070080c1b30021000700e8
:105258006480200024029000841f7800a4152a008e
:10526800841f780086f40700e4875700c0a4200054
:1052780059f407000002eb00040f78001e0fe80045
:1052880050fe070000427800e04f5200e0ff320075
:10529800000000004bfe070000427800e04f52007b
:1052a800fcff3a000080fa00000006000000fa0047
:1052b8006200200001402000000028002af40700b6
:1052c80000802e003100200069ec07000080fa0001
:1052d800000006000200fa00004f780001003700c5
:1052e8000000000023c2bf00624060000004e0002c
:1052f800fbff3a001e80fb002011880001003700e8
:105308000000000023c2bf00614060000004e0000c
:10531800fbff32000080fa00000006000600fa00d9
:1053280010079800414798000040eb00004f7800b4
:10533800070037001e80fb00800078001e009000e8
:105348000080400010407800e2ff07001e4fe80090
:105358004e4090009e4f1000f6ff39000080fa0082
:10536800000006000200fa00004f7800c0c7b30032
:10537800d8ff07001e407800d6ff07000080fa001b
:10538800000006000000fa00c0c7b300d1ff070004
:105398000040eb00cfff07000080fa000000060085
:1053a8000200fa00000f7800c0c7b300c9ff070069
:1053b80010c0b300c7ff07001e007800c5ff070034
:1053c8000080fa00000006000200fa00000f7800d2
:1053d800c0c7b300bfff070020c0b300bdff070070
:1053e8001e007800bbff07000080fa0000000600de
:1053f8000800fa00000f78001107980022079800ab
:1054080033079800c0c7b300b2ff070030c0b3002d
:10541800b0ff07001e007800aeff07001e009000d6
:10542800acff07002e009000aaff07003e00900086
:10543800a8ff07000080fa00000006000000fa003c
:10544800c0c7b300a3ff070040c0b300a1ff070017
:105458000080fa00000006000800fa00000f78003b
:10546800110798002207980033079800c0c7b300b7
:1054780098ff070050c0b30096ff07001e00780091
:1054880094ff07001e00900092ff07002e00900076
:1054980090ff07003e0090008eff07000080fa0092
:1054a800000006000000fa00c0c7b30089ff07002b
:1054b80060c0b30087ff07000080fa000000060004
:1054c8000200fa00000f78001e00e00002003c0015
:1054d80010002000000f7800600020009e0f1000d0
:1054e8000200340060002000000f7800c0c7b3003d
:1054f80078ff070070c0b30076ff07001e00780031
:1055080074ff07000080fa00000006000000fa009f
:10551800c0c7b3006fff070080c0b3006dff07006e
:105528000080fa00000006000200fa00000f780070
:10553800c0c7b30067ff0700a0c0b30065ff07003e
:105548001e00780063ff07000080fa0000000600d4
:105558000800fa00000f7800110798002207980049
:1055680033079800c0c7b3005aff0700b0c0b300a4
:1055780058ff07001e00780056ff07001e00900025
:1055880054ff07002e00900052ff07003e009000d5
:1055980050ff07000080fa00000006000a00fa0029
:1055a800000f780011079800220798003307980029
:1055b80044079800c0c7b30046ff0700c0c0b30047
:1055c80044ff07001e00780042ff07001e009000fd
:1055d80040ff07002e0090003eff07003e009000ad
:1055e8003cff07004e0090003aff07000080fa00d9
:1055f800000006000a00fa0010079800210798002a
:105608003207980043079800c0c7b30031ff07006e
:10561800d0c0b3002fff07001e0090002dff070029
:105628002e0090002bff07003e00900029ff070086
:105638000000eb00000f7800070037001e0078001c
:10564800800078004e0090000080400010407800f4
:1056580020ff07001e0fe800f00120009e0f100039
:10566800f6ff34000080fa00000006000a00fa0085
:10567800000f780011079800220798003307980058
:1056880044079800c0c7b30012ff0700f0c0b3007a
:1056980010ff07001e0078000eff07001e00900094
:1056a8000cff07002e0090000aff07003e00900044
:1056b80008ff07004e00900006ff07000080fa0070
:1056c800000006000600fa00000f78001107980095
:1056d80022079800c0c7b300fefe070000c1b30050
:1056e800fcfe0700000820009e0f10000300340095
:1056f80000c8b300f7fe0700070037001e00e000ef
:1057080003003d000040eb00f2fe070002003700f6
:105718001e007800effe07009e00900000042000a5
:10572800808f50000300340000c4b300e9fe070076
:10573800080037001e0090000000e00003003d0054
:105748000040eb00e3fe0700020037001e00900057
:10575800e0fe07002e009000e10f50000600320026
:105768002e0090000000e0000300320010c0b300db
:10577800d8fe0700020037002e009000d5fe070073
:105788000080fa00000006000a00fa00000f780006
:10579800110798002207980033079800044f9800d3
:1057a800c0c7b300cbfe070020c1b300c9fe070085
:1057b8001e007800c7fe07001e009000c5fe070007
:1057c8002e009000c3fe07003e009000c1fe0700b7
:1057d8000e489000bffe07000080fa000000060097
:1057e8000000fa00c0c7b300bafe070040c1b3000a
:1057f800b8fe07000080fa00000006000000fa006a
:10580800c0c7b300b3fe070050c1b300b1fe070024
:105818000080fa00000006000e00fa001007980049
:10582800210798003207980043079800540798000a
:1058380065079800c0c7b300a6fe070060c1b300a3
:10584800a4fe07001e009000a2fe07002e00900094
:10585800a0fe07003e0090009efe07004e0090004c
:105868009cfe07005e0090009afe0700ce009000a4
:105878005e0090000088b900820020001100090035
:105888000200d800000f78000000eb001007980015
:10589800090037001e009000800078006e0090001c
:1058a80000804000104078008afe07001e0090002b
:1058b8000000e800100798001e0090009e0f50009e
:1058c800f4ff35000080fa00000006000400fa002a
:1058d800000f780011079800c0c7b3007dfe0700cd
:1058e80080c1b3007bfe07001e00780079fe070028
:1058f800c0c7b30077fe070090c1b30075fe07006c
:105908001e00900073fe07000080fa0000000600e9
:105918000400fa00100798001e009000e80f5000dd
:105928000300340080002000100798000c003700a6
:105938001e0090000000e00003003c001000200062
:1059480010079800060037001e0090004300dd0095
:10595800680f50009e00780010002000dbff070051
:085968000080fa0000000600b7
:020000040000fa
:10597000000800001600000000000000640a00009b
:10598000020000000200000001000000400a0000c8
:1059900024000000020000006a0a0000006a0a00f9
:1059a00009000000000200006c0a0000006c0a0000
:1059b0000e020100000000000000000000000000d6
:1059c0000602020000000000660a0000020000005b
:1059d00002000000400a0000680a00000200000007
:1059e000000000006a0a0000020000000000000041
:1059f0006c0a00000200000000000000160a00000f
:105a00002a0000000200000030313200333435003b
:105a100036373800394142004344450046003000e3
:105a20003132330034353600373839006162630073
:105a30006465660000286e00756c6c00290000002b
:105a400076090000a0000000020000000100000034
:105a50000000000000000a0000000000000000003c
:105a6000006400000000000000000000e8030000e7
:105a700000000000000010002700000000000000ef
:105a800000a08600010000000000000040420f005e
:105a90000000000000008000969800000000000058
:105aa0000000e100f50500000000000000ca9a00b7
