:020000040000fa
:080000000002040000000000f2
:020000040000fa
:10000800b6020000b6020000b6020000b602000008
:10001800b6020000b6020000b6020000b6020000f8
:10002800b6020000b6020000b60200006020000020
:10003800b6020000b6020000b6020000b6020000d8
:10004800b6020000b6020000b6020000b6020000c8
:10005800b6020000b6020000b6020000b6020000b8
:10006800b6020000b6020000b6020000b6020000a8
:10007800b6020000b6020000b6020000b602000098
:10008800b6020000b6020000b6020000b602000088
:10009800b6020000b6020000b6020000b602000078
:1000a800b6020000b6020000b6020000b602000068
:1000b800b6020000b6020000b6020000b602000058
:1000c800b6020000b6020000b6020000b602000048
:1000d800b6020000b6020000b6020000b602000038
:1000e800b6020000b6020000b6020000b602000028
:1000f800b6020000b6020000b6020000b602000018
:10010800b6020000b6020000b6020000b602000007
:10011800b6020000b6020000b6020000b6020000f7
:10012800b6020000b6020000b6020000b6020000e7
:10013800b6020000b6020000b6020000b6020000d7
:10014800b6020000b6020000b6020000b6020000c7
:10015800b6020000b6020000b6020000b6020000b7
:10016800b6020000b6020000b6020000b6020000a7
:10017800b6020000b6020000b6020000b602000097
:10018800b6020000b6020000b6020000b602000087
:10019800b6020000b6020000b6020000b602000077
:1001a800b6020000b6020000b6020000b602000067
:1001b800b6020000b6020000b6020000b602000057
:1001c800b6020000b6020000b6020000b602000047
:1001d800b6020000b6020000b6020000b602000037
:1001e800b6020000b6020000b6020000b602000027
:0801f800b6020000b60200008f
:020000040000fa
:10020800b6020000b6020000b6020000b602000006
:10021800b6020000b6020000b6020000b6020000f6
:10022800b6020000b6020000b6020000602000001e
:10023800b6020000b6020000b6020000b6020000d6
:10024800b6020000b6020000b6020000b6020000c6
:10025800b6020000b6020000b6020000b6020000b6
:10026800b6020000b6020000b6020000b6020000a6
:10027800b6020000b6020000b6020000b602000096
:10028800b6020000b6020000b6020000b602000086
:10029800b6020000b6020000b6020000b602000076
:1002a800b6020000b6020000b6020000b602000066
:1002b800b6020000b6020000b6020000b602000056
:1002c800b6020000b6020000b6020000b602000046
:1002d800b6020000b6020000b6020000b602000036
:1002e800b6020000b6020000b6020000b602000026
:1002f800b6020000b6020000b6020000b602000016
:10030800b6020000b6020000b6020000b602000005
:10031800b6020000b6020000b6020000b6020000f5
:10032800b6020000b6020000b6020000b6020000e5
:10033800b6020000b6020000b6020000b6020000d5
:10034800b6020000b6020000b6020000b6020000c5
:10035800b6020000b6020000b6020000b6020000b5
:10036800b6020000b6020000b6020000b6020000a5
:10037800b6020000b6020000b6020000b602000095
:10038800b6020000b6020000b6020000b602000085
:10039800b6020000b6020000b6020000b602000075
:1003a800b6020000b6020000b6020000b602000065
:1003b800b6020000b6020000b6020000b602000055
:1003c800b6020000b6020000b6020000b602000045
:1003d800b6020000b6020000b6020000b602000035
:1003e800b6020000b6020000b6020000b602000025
:0803f800b6020000b60200008d
:020000040000fa
:10040000ef9220000eff27000e0188000000000080
:10041000000020000000e000020032000001200087
:10042000200288000c000700e06b22000100200081
:100430001f000700000020000000e0000200320062
:100440000000020000000000601d0200000000002b
:100450000040da000000fe004440a900c00b20006c
:100460000000e0000300320000002000a00188002e
:100470004440a80000000600f03fb1000180b10038
:1004800006003500ee03090000000000403fb10007
:100490000180b100fbff3d001000b000203fb00024
:1004a0000200350000800900000000000000060086
:1004b00091018800800078000000eb0015003700f3
:1004c000e280400032a0b4009101ba00e280400016
:1004d00032a0b4009102ba00e280400032a0b40021
:1004e0000002eb00472bde00f507b200602ce100b4
:1004f00004003a000059eb008301e900fdff3e00d3
:10050000040037006128e100010032000082eb00a6
:10051000040007001101ba000200e000e8ff3a0001
:10052000000006003159ba008301e9000c003200d6
:100530002159ba008301e900080032000400e000fc
:1005400003003a00e280400032a0b400f5ff37001b
:1005500011d9ba008301e900faff3a008100e800ee
:10056000e180400032a0b400000006000040da0044
:100570000000fe0000c0da00000006000a00fa00d9
:10058000e20f500022003e0024498000e10f52009b
:100590000600320087232000462320002423200069
:1005a00005232000e08f530004003a00872220003a
:1005b00046222000242220000522200000002800de
:1005c0001500600003003a00800b78000700280047
:1005d000958a7300054020009482620001003a0071
:1005e00014a0a0008202780006003700940378006f
:1005f0000710b200fdff3200b103fb00070b7800cb
:100600008502e900e08f5200f8ff3a000800370049
:1006100034002000c0bf9f00e2bf9f00b4bf9f0016
:10062000d1bf9f006a805700d2ff07006fb99700c3
:10063000020078000080fa00000006006011b80097
:1006400017013700889fbe008a9fbe008c1f78006c
:10065000420107004901330003866c006450e10049
:10066000240032006420e100270032006150e100e4
:10067000220032006120e100210032008b8542001f
:10068000eb07b1000134b800003ab800080442009a
:1006900089844a00013ab8000030b80088804000e0
:1006a00009014a0004003300000040008180480036
:1006b000020149008b05e900c909dd0083017000d2
:1006c0000100320013002000c814de004814dd00d1
:1006d0004709de001200b200c808de00088470007e
:1006e0003601070001f0a1000cf0a70001f0a00006
:1006f0002b0137006120e1002d0132000801be000e
:100700000200be00f7ff37006150e100fcff3a0035
:10071000270137000081eb004e01370003f0a200f3
:10072000889fbe008a9fbe008c1f78000b010700c7
:10073000120133006450e1004f0032006420e100f8
:100740005200320003826c0007003b000905d00014
:100750000306d000820f54000c065d000200390031
:100760000200320089017800030678008582550076
:1007700004003d000003fd008103fd008502ea0046
:100780008b854200840f720002003b006000100065
:10079000e08018006011b8000005eb007a28e10045
:1007a0000a00390006007800c75ddd00f707b200d7
:1007b000878075002d003700828171000a01780062
:1007c000610560008180d1000080d3008502e900ce
:1007d000f9ff3b00060440008784480002003b000c
:1007e00060041400e0841c000988a30007003200a4
:1007f0008a81710082817100610164008904d100e5
:100800000884d3008b05e800170037000978a3009f
:1008100013003a000b00e000130034008b05e900e0
:100820000804440089844c000a4474000978a30039
:100830000d003a000b00e000070034008b05e900d2
:100840000804440089844c0001003a000b00200099
:100850000978a300f7ff32000001eb000200370027
:10086000828171000a017800d40007000cf0a70013
:1008700001f0a000ca0037006420e10002003a0045
:10088000838f6c00ca0033000801be000200be0066
:10089000c30037000001eb00ee0037000001be008e
:1008a000550107000470a70003f0a10003f8a3009e
:1008b00013003a006509b10010003200090035004c
:1008c0006928e10002003500010028000000050051
:1008d00000004000818048008502e900fcff3a00ea
:1008e00000000600f88f4200050035008100d100ad
:1008f0000080d3008502e800fcff3a0000000600fb
:100900008000eb00000005004f89de0082017800c6
:100910004e013700889fbe008a9fbe008c1f780062
:100920008e0007009500330003866c006450e100e0
:100930002e0032006420e100330032006150e100fb
:100940002f0032006120e100310032008585550022
:10095000eb07b00009002000080420000500370064
:100960000804440089844c000a0031000603430057
:1009700087834b000001530081815b00f8ff330047
:100980000203be000800a0000804440089844c0053
:10099000f6ff3900c639dd00830173000100320023
:1009a000130020008904d1000884d3000998a30013
:1009b000050032000800a7000300a0008904d10050
:1009c0000884d3008b05e8008904d1000884d30093
:1009d0000001eb000281d2007800070001f0a100c5
:1009e0000cf0a70001f0a0006d0037006420e100ca
:1009f0006f0032000801be000200be00f7ff3700a2
:100a00006120e1006a0032006000b800f3ff3700a7
:100a10000000200001f82700f0ff37000001be00b1
:100a2000f50007000470a70003f0a1006509b100fc
:100a3000160032000d0035006828e1000600350080
:100a4000f0ff2f00f1ff27000300e00013003b0040
:100a500001002800000005000000400081804800df
:100a60008502e900fcff3a0008003700f88f4200d9
:100a700002003c008000eb00000005008100d10076
:100a80000080d3008502e800fcff3a000300e0008c
:100a900002003b0060001000e0801800000006002b
:100aa000889fbe008a9fbe00008270000402710011
:100ab00004827100260032000004be000200be0065
:100ac0006011b8006b092000950220000182cf0060
:100ad0000a0039000541b1000082cf00070039004b
:100ae0000541b1000982cf00040039000541b10081
:100af0000882cf00010039000541b10005425200d3
:100b0000120032000a003b00828171006101640022
:100b10008100d1000080d3008984d3000884d300f1
:100b20008b05e8000442e800f7ff3a0007003700b1
:100b30000804440089844c0000004800818048007b
:100b40008b05e9000442e900f9ff3a001b000700a9
:100b50004f05be004f04be00000006000004be00aa
:100b6000a50007000003be000405be000200be0091
:100b7000a1000700844f7500000006000200be00bf
:100b80006450e100050036006420e10002003600f8
:100b90000968a30001003a000800be000160a0003f
:100ba0004f0678004f05be004f04be00000006004f
:100bb000f0ff2f00f1ff2700f9ff37008100200030
:100bc000618055000b003d000b00200061fe2f00ee
:100bd0000100e1001d0034008281710061016400a8
:100be0008904d1000884d3000000e800faff3a002d
:100bf00071002000610064000300700002006000ca
:100c00000900320061044400e0844c000988a5001a
:100c1000050032008b05e8006808e10002003a0098
:100c20008904d1000884d300f20f20000258e100ab
:100c300005003d00c75ddd00f907b2008980750041
:100c400008007800000006000bf827008b007800f1
:100c500000000500889fbe008a9fbe008c9fbe00da
:100c6000820578000004be00630007000800be0093
:100c70006420e1000700390002003a00f1ff27007c
:100c8000f0ff2f000160a00012022000a2418800a6
:100c9000550037006120e10003003a000b00a70077
:100ca00001f823005000370001f0a10002002100ec
:100cb00093642400750007000800be00040035009e
:100cc000b2fd2000930c2400720007000004be0057
:100cd0000005eb000b00a6004f0dde0001f0a100a7
:100ce0000004be0032982f0023ea230055fe0700bf
:100cf0000001eb0003f023000b00a70003f8230022
:100d000087fe070045ff07000000a7000a00a200b9
:100d1000fdfe07000b00e00003003200020020008f
:100d200003f023007dfe070001f0a2000006be00d4
:100d3000020020009304240042fe07000801be00c8
:100d400077fe0700809fbe000c00be0022a22a0092
:100d5000d3a723003bfe07004f01be0070fe070033
:100d60000004be0001f0a10002002000039823004f
:100d7000460007000800be00190035000001be0053
:100d800030fe07000006be00b2c52900e362230062
:100d90002cfe070022222b00f3942b0060fe07009c
:100da0000c01be0027fe0700e273280083c0230069
:100db0005bfe07000c01be0022fe070042aa2a00cb
:100dc000a3e22b0056fe07000c01be001dfe07002b
:100dd0000801be001bfe07000801be0050fe070010
:100de0000a00a70001f0a2004f06be004f05be009a
:100df0004f04be0000000600c70ade00f107b20083
:100e0000f50fb20008003200e1cf420002003200cc
:100e10000170a00024000500810f70000100320065
:100e20000408050044000500810f700002003a002c
:100e3000140005008502e9000000400081c0480060
:100e4000fcff3b000170a00024000500881f780013
:100e5000030478000300e00007003d00600010007c
:100e6000e080180060011900e081190002003b00d9
:100e700001f02d000300370009ff070008f0a7006c
:100e800001f0a0004f0478000000060014002000cc
:100e900002003700040020001b003700889fbe00be
:100ea0008a9fbe00841f78002cff07004f00780047
:100eb00011003300f0ff2f00838f6c0006003b0011
:100ec000040565000a00a7000800370009f0a60025
:100ed0001000200008003700820f5400838f5c0050
:100ee000030039001000200001003e000000200037
:100ef00009f0a7000000ea004f05be004f04be0045
:100f00000000e00000000600889fbe008a9fbe002f
:100f10008c1f78004f26dd0010ff070017ff3300fd
:100f20006120e100430032006250e10041003e00d8
:100f30003e0039006420e1003c003200058255008b
:100f40000f003b000402e80038003a00800f530015
:100f5000818f5b00350034000800be0003f0a10063
:100f600001f0a60003f0a0000cf0a700ecfd0700c4
:100f70000bff37000603430087834b000c464600f7
:100f80000005530081855b00020033000a03be00a8
:100f90000c00a0000402e900f6ff3b008505780084
:100fa0000602430087824b0004003a006000b8004c
:100fb00009f0a70001f0a000f9fe3700000252007e
:100fc00081825a000704e000040033000603430056
:100fd00087834b008b05e900faff3700090578008d
:100fe0000604be000203be006011b800f3fe070055
:100ff000e00f5200e08f5a000700350002003c006d
:101000000c08a300040032000601be0003f0a0009b
:101010000cf0a700c2fd07000a85680001f0a100de
:101020000af0a70001f0a000ddfe37000800be00b6
:10103000dbfe3700100220000cf0a600a041880063
:10104000dbfe3700889fbe008a9fbe003004be00d2
:101050002005be000404440085844c0006054d00b4
:1010600087854d000898be000a90be000440e1004c
:1010700005c8e10006d0e10007d8e1000200310018
:10108000680040001008e8004f05be004f04be0095
:10109000000006001000fa00889fbe008a9fbe0074
:1010a000110020000605be000404be003002be0090
:1010b0002003be00c4b79f00d5b79f00e6b79f00ce
:1010c000f7b79f000802520089825a000a035b00aa
:1010d0008b835b0084bf9f0095bf9f00a6bf9f00ce
:1010e000b7bf9f000498be000698be004fb297009d
:1010f000dfb297006fb39700ffb39700b00007000f
:10110000010039008000eb004f05be001088100080
:101110004f04be000080fa00000006001400fa0030
:10112000889fbe008a9fbe008c9fbe000006eb0019
:1011300079000700ccb79f00bcb79f00acb79f00f9
:101140009cb79f008cb79f000605be000404be003c
:101150000d0420004fb39700bfb2970086034300f1
:101160002fb29700e00f530004003d0099000700e4
:101170000f004000b3ff0700030037009500070091
:101180000f004000c3ff0700cfb2970095bf9f003c
:10119000e08f5200090035006600070014002000af
:1011a000050020006033b8000000720081807200ea
:1011b0000201730083817300570007000c06e800ea
:1011c0008d0f5600e3ff3a001fba9700e00f520060
:1011d00005003d000802be000a03be0000fe2f000d
:1011e0000f00400097ff07004faa9700e00f520042
:1011f00008003a000fb497009fb497002fb59700ee
:10120000bfb59700d8b79f00e9b79f00fab79f0016
:101210008bbf9f00470007004f06be004f05be0072
:101220004f04be000080fa0000000600881f78000e
:1012300018002000881f7800b8ff07008f87e9009a
:101240004f04780000000600801feb00b3ff07008a
:101250008f87e90000000600889fbe008a9fbe00bd
:101260004100070008003d007a0007004300070026
:10127000180020004600070008003d002f0007006e
:101280000004eb00050037000004eb0040000700fd
:1012900002003d002900070018002000e3ff0700be
:1012a000e00f5400010032003e0007004f05be0071
:1012b0004f04be0000000600889fbe008a9fbe004b
:1012c0008c1f78002800070006003d006100070021
:1012d0001c002000290007003900070006003d001f
:1012e000040037000006eb002900070002003d0063
:1012f0005800070012000700d3ff0700e00f560058
:1013000001003200270007004f0678004f05be009d
:101310004f04be00000006000100070000000600a8
:1013200090b79f00a1b79f00b2b79f00c3b79f00bf
:101330000000060007000700000006004500070047
:101340000402540085825c0006035d0087835d0013
:10135000000006001fb09700afb097003fb19700a4
:10136000cfb1970000000600e00f5000e08f58005a
:10137000e00f5900e08f5900000006000000540003
:1013800081805c0002015d0083815d000000060039
:10139000e00f5200e08f5a00e00f5b00e08f5b002f
:1013a000000006006022b8006033b8000000520060
:1013b00081805a0002015b0083815b00000006000f
:1013c0000820e10009a8e1000ab0e1000bb8e10043
:1013d000000006004f2bde00deff0700868373004f
:1013e000858242004f23de00a7b79f0086827200ed
:1013f0000402420095b79f00ffaa97004f2bde0022
:10140000858242000602720084b79f006faa97008f
:101410004f23de000402420086827200f5af9f0077
:101420004f18de0000027200caff0700e4af9f0001
:10143000000040008180480002014900838149008a
:101440000802be000a03be00b5ff070000fe2f0021
:10145000000006006044b8006055b80000000600b7
:10146000889fbe008a9fbe008c1f78000006eb009c
:10147000e00f5000e08f5800e00f5900e08f590056
:1014800007003d006044b8006055b8001c00200013
:101490000000540081805c0002015d0083815d00da
:1014a000e00f5200e08f5a00e00f5b00e08f5b001e
:1014b00007003d006044b8006055b8000c00a20071
:1014c0000402540085825c0006035d0087835d0092
:1014d00022000700e00f5600060032006022b8002c
:1014e0006033b8000000520081805a0002015b00a6
:1014f00083815b004f0678004f05be004f04be009d
:10150000000006006022b800060220000000d000a3
:101510008180d2000482d2008582d2000000a00027
:101520000202520083825a0003003100020242008c
:1015300083824a000000a1000603e900f3ff3a009d
:1015400000000600020ab900001bb9000200b80042
:10155000810042008100430000000600889fbe0019
:101560008a9fbe008c9fbe000404b8000506b80028
:101570008904460060854e000606b8000a0546004c
:10158000e0854e000706b8008b054600040eb80043
:10159000890446000a854e00e0854d00050eb8001e
:1015a0000a0546008b854e00060eb8008b054600e6
:1015b0000416b8000a0546008b854e000516b800d3
:1015c0008b054600041eb8008b0546000800be00cf
:1015d0000a01be004f06be004f05be004f04be000c
:1015e00000000600421188000011880011118800d7
:1015f00000000600c09020000000fa00688157003b
:10160000cfb89700440007000080fa0000000600f1
:10161000881f7800000478003800900000027800ed
:101620001420b200e10f520005003a000002eb0066
:101630001404980028029000040c78001900370068
:1016400080027800242020002520b2000000eb005a
:10165000848f520016003a00a8009000808f50003e
:101660001300320018019000800f5100100032006a
:1016700048009000c1fb070018029000840f500042
:1016800003003200380290000403b30034049800d1
:10169000380090000002eb0014049800280290002b
:1016a000040c78000002b200010032000080eb0060
:1016b0004f04780000000600889fbe000004be00b2
:1016c000050037000000fb00890078008e0307004a
:1016d000e10f40000400320038407800e04f500035
:1016e000f8ff3a000000eb004f04be0000000600c7
:1016f000c1902000881f7800efff0700c1902000f4
:1017000000047800a00020007f0307000800780094
:101710004f04780000000600ef03b000889fbe0071
:101720008a9fbe008c9fbe00800678008e1f7800c6
:101730000007eb00d1af9f00a2b79f006603370000
:10174000dfa8970054c2b3008100e800d1af9f002a
:10175000844f500006003a00010278000006eb00ba
:1017600001c3b30000c2b300b7c2b3000e0037001c
:101770003d0290000404b200040032001d02780013
:10178000004a7800840ee800050037000000fb00e6
:101790008d0078005c030700e10f40004e0332002b
:1017a0000e07e8004c03370084027800d2c2b30071
:1017b00034437800824f53000900320005003c009a
:1017c000804f530008003200874f53000c003a004e
:1017d00007003700814f530009003a000600370028
:1017e0000c30a000f0ff37000c00a000eeff370027
:1017f0000c10a000ecff37000c20a000eaff37001f
:1018000062026600010032000c00a100680266005e
:10181000010032000c20a1000602fb000403b1000d
:10182000e90f52000c003e00050378000002eb00b7
:10183000b603fb006a22b9000703b10086027800f4
:10184000048243009603fb000703b100e98f5300b5
:10185000f7ff3600080037000002eb00a7c2b30014
:10186000874f530004003a00afb197008502e800ab
:1018700043027800a3b79f000003eb0096b79f00d8
:10188000e6c2b300954f13000c003a000ce0a00034
:1018900064435300d54f1300030032000503780062
:1018a0000000eb0009003700afb397008502e800a5
:1018b00047047800a7b79f0098b79f0005037800fa
:1018c000090037006a00b9000080430086027800f2
:1018d000b603fb000703b100e98f5300f9ff3600a0
:1018e00090b79f00f5ff3700b6427800cac6b30034
:1018f000d6af9f008acf5200250032000f003c0077
:1019000036c6b30086cf52009e00320004003c0071
:10191000e0cf5200f50232006b4353000f00370056
:1019200046c6b30086cf520017003200654343001d
:1019300086cf5200b2003a001300370036c7b3001a
:1019400086cf52001f00320007003c006443530062
:1019500086cf5200140032000643e80086cf5200c2
:10196000a7003a001300370056c7b30086cf5200d5
:10197000aa0032006343430086cf5200a0003a0021
:10198000e5779f000d003700e5779f00a500370041
:10199000f003660005012000010032000500280068
:1019a0000c867200d0ff3700e5779f000c60a00026
:1019b0009c003700e5779f000c50a0000c70a00041
:1019c00098003700afb59700e5779f00cb0278000d
:1019d000abb79f00b5b79f00e08f520002003a00fe
:1019e000818f2000b1b79f003fb397008002eb00ca
:1019f000010037008502e800e6c37a00e0cf53001b
:101a0000fcff3a00c5b79f001fb19700e00f5100df
:101a100005003200cfb19700830f51000200310062
:101a200082027800c5b79f00cfb297000004eb0098
:101a3000850f52000100360005045200680666005a
:101a400009c2b3000f003200290037003d029000a8
:101a50000404b200040032001d027800094a780034
:101a6000840ee800050037008d0078000002200099
:101a7000a5020700e10f4000010032000e07e80058
:101a80000804e900e00f5400f0ff3a000084eb0086
:101a900017003700bd0290000504b20009003200b3
:101aa000880278009d03780035437800864b7800e3
:101ab00005047800870ee800e04f53000a003a0062
:101ac00011003700880278008d0078003500fb0097
:101ad00084bf9f00050478008b0207000fba9700af
:101ae000e10f4000080032000e07e8000600370052
:101af0000c027800080678003fb49700cfb4970036
:101b00005fb59700efb59700890278008504e9007a
:101b1000e08f5200dfff3a00b8b79f00c9b79f00bf
:101b2000dab79f00ebb79f000c04780009c2b3003e
:101b300004067800e00f56000f003a0066023700f6
:101b40003d0290000404b200040032001d0278003f
:101b5000094a7800840ee800050037008d007800ff
:101b60000002200068020700e10f4000010032007f
:101b70000e07e8000804e900e00f5400f0ff3a0007
:101b800055023700afb0970070036600410478003b
:101b9000a1b79f00cfc4de00090578008a05780050
:101ba0000800be000a01be004800de00c80add00d1
:101bb00000807200e0779f00e00f530009003200c0
:101bc000e04f500007003200e14f400005003200b6
:101bd00026002000f0779f00887f9f00c6b79f00f7
:101be0000300370017002000c7b79f00f8779f0059
:101bf00078fb2f0008844700b8b79f0082ff3700aa
:101c000069fb2f001a00200089844700e5779f00b8
:101c1000b9b79f00cab79f007bff3700e5779f00e9
:101c20000c0cb3008c027800050cb2003b003a00ab
:101c3000e00f560005003d00afb297004501be0021
:101c40004500be00a5b79f000f003700f0026600f8
:101c5000120032002fb497004803be00f69f9f0089
:101c600087a79f00a8b79f0098029000cfaade0028
:101c700095a79f00a5a79f007f9897008fa097002a
:101c80001fa19700afa19700b0b79f00c1b79f00f9
:101c9000d2b79f00e3b79f000b003700afb09700ab
:101ca000c102780005047800cfc4de000905780081
:101cb0008a057800a1b79f00b8b79f00c9b79f00f9
:101cc000dab79f00ebb79f003fb09700cfb0970007
:101cd0005fb19700efb19700e00f5000e08f580020
:101ce000e00f5900e08f590032003d006000b8005d
:101cf0006011b8003fb49700cfb497005fb597006c
:101d0000efb597003c00b3000804500089845800e8
:101d10000a0559008b85590022003700e00f560054
:101d200005003d00afb297004501be004500be0072
:101d3000a5b79f000f003700f002660012003200c6
:101d40002fb497008004eb004803be000005eb00b1
:101d500096af9f00a7af9f00b9af9f00caaf9f008b
:101d60001fa89700afa897003fa99700cfa9970099
:101d7000a8b79f00b0b79f00c1b79f00d2b79f0020
:101d8000e3b79f000b003700afb09700c1027800a7
:101d9000a1b79f0005047800090020000a00200078
:101da0000b002000b8b79f00c9b79f00dab79f00ab
:101db000ebb79f009fb49700e08f54000d003a00ee
:101dc0001a0020003fb09700cfb097005fb1970096
:101dd000efb197009ab79f00e00f5000e08f5800d6
:101de000e00f5900e08f5900020032008000eb0044
:101df00091b79f000c01780005042000020cb2008e
:101e000082b79f00850f51003400320003003c0070
:101e1000e00f51000800320048003700050820009c
:101e20008fb19700858f510014003200050c2000ff
:101e3000858f510041003a00e683200015c0b300b1
:101e40003600be003601be003fb49700cfb4970005
:101e50005fb59700efb597000040e10001c8e100d1
:101e600002d0e10003d8e100330039008542e800e8
:101e7000f4cf5200f2ff3a002f00370015c0b30034
:101e800000012000010020006011b8003fb497005d
:101e9000cfb497005fb59700efb597000040e10021
:101ea00001c8e10002d0e10003d8e10022003900be
:101eb000490020000000d0008180d2000281d200c1
:101ec0008381d2008904e900faff3a008542e800e4
:101ed000f0cf5200edff3a001700370015c0b300f5
:101ee00080002000010020006011b8003fb497007e
:101ef000cfb497005fb59700efb597000040e100c1
:101f000001c8e10002d0e10003d8e1000a00390075
:101f1000390020000000d0008180d2000281d20070
:101f20008381d2008904e900faff3a008542e80083
:101f3000f5cf5200edff3a00e5779f006f759700ef
:101f40009fb597008a02fb008b8f520002003d0074
:101f5000eb779f00040037001fb09700850f5000fb
:101f600001003d0095b79f00e00f520003003200d2
:101f7000e3026600010032000402e90005002400cb
:101f800085026600060032009fb09700810f520064
:101f90000200340001025200010037000002eb0091
:101fa0006f7197008001eb008202fb00f3af9f008e
:101fb000850f52000200340085025200f5af9f00e9
:101fc000640266003b003200e202660061026600c5
:101fd000e08f520011003200bd0290000504b200f3
:101fe000080032009d027800b6c2b300e00f520034
:101ff0000100320006c3e800864a7800850ee8003a
:1020000015003700b0022000e00f5200010032003e
:102010000080e8008d0078000c003700e00f5200cf
:102020000e0032003d0290000404b20005003200b0
:102030001d02780005c2b300054a7800840ee8004e
:10204000050037008d007800000220002e010700f7
:10205000e10f4000010032000e07e8007faa970060
:10206000e00f52004f00320008c3b3008404780030
:102070003d0290000404b200040032001d0278000a
:10208000084a7800840ee800050037008d007800cb
:10209000000320001c010700e10f40000100320096
:1020a0000e07e8008904e900f1ff3a00f9af9f004c
:1020b0003c003700ffaa9700e08f52001400320066
:1020c0006802660012003a0008c2b3008504780076
:1020d0003d0290000404b200040032001d027800aa
:1020e000084a7800840ee800050037008d0078006b
:1020f0000002200004010700e10f4000010032004f
:102100000e07e8008904e900f1ff3a00f9af9f00eb
:10211000e202660061026600e08f520011003200a8
:10212000bd0290000504b200080032009d02780054
:10213000b6c2b300e00f52000100320006c3e8004f
:10214000864a7800850ee80015003700b0022000ae
:10215000e00f5200010032000080e8008d0078009e
:102160000c003700e00f52000e0032003d029000dc
:102170000404b200050032001d02780005c2b3005d
:10218000054a7800840ee800050037008d007800cd
:1021900000022000dc000700e10f400001003200d7
:1021a0000e07e8001fb39700658320000602e900d0
:1021b000f0046600c223dd000c057800c7a79f006d
:1021c0000a02b2006323b900e99f9f000604780069
:1021d0004322dd00b8a79f0085024200da9f9f00de
:1021e000e5af9f00a30037009fb597000fb09700a1
:1021f0008b05e900010420009bb79f00810f500070
:102200007300320003003c00e00f50000800320071
:102210007e003700040820000fb19700840f5100a2
:1022200056003200040c2000840f510077003a0061
:10223000e00f56001f003d00efa997003304be00d9
:102240002305be003fb09700cfb097005fb1970065
:10225000efb197000802be000a03be00f3fb0700bf
:102260000802be000a03be00e0779f000000fb00ea
:10227000cf80de00010178008201780078fc070041
:102280003fb29700cfb297005fb39700efb39700cc
:102290000002520081825a0002035b0083835b00cc
:1022a000b4b79f00c5b79f00d6b79f00e7b79f00a0
:1022b0002e003700ef9a9700e08f52002200320084
:1022c0006fab97003fb29700cfb297003604be00c5
:1022d0002605be000400be000801be0084bf9f00aa
:1022e000f5b79f000005eb0086fc07000801be0063
:1022f000e0779f000000fb00cf80de0091fc07002c
:102300000fba9700ffb297008aaf9f0000045200f7
:1023100081845a00d8a79f00e9a79f008004eb00a2
:10232000f9a79f005fa09700efa097007fa19700fb
:102330008fa99700b0b79f00c1b79f00d2b79f0089
:10234000e3b79f0009003700efa897003fb197005f
:1023500011027800110009000481d800a4002000b7
:10236000110009000480d800e1779f00ef71970009
:102370000343b000e3779f0024003700748e2000f1
:10238000df9a9700e08f520001003200648d200038
:102390003fb09700cfb097005fb19700efb19700c3
:1023a0004fa397000603e900050033008301d10025
:1023b0000281d3008180d3000080d300f9ff370071
:1023c0006f00600064407800e0779f000f003700e6
:1023d0003fb29700cfb297005fb39700efb397007b
:1023e0003fa497000804e900050033008703d100eb
:1023f0000683d3008582d3000482d300f9ff37001f
:10240000674262000443b000e4779f003d02900001
:102410000404b200070032009d0278006f7297003a
:10242000844a7800850ee800e04f520007003a0029
:1024300007003700ef7497008d0078000900fb005b
:1024400031000700e10f4000010032000e07e800f4
:102450004fa59700bfa597006fa89700640555008a
:10246000e385550068005000caa79f00bba79f00e6
:10247000e0af9f009fb09700e08f50005aff3a00f6
:1024800068066600140032007fa99700e00f510033
:102490001100340008c2b300820478003d029000ad
:1024a0000404b200040032001d027800084a7800db
:1024b000840ee800050037008d007800000220003f
:1024c00011000700e10f4000010032000e07e80094
:1024d0008904e900f1ff3a00dfa997001340780072
:1024e000e0779f00e04f500095fc3a000e00780026
:1024f0004f0778004f06be004f05be004f04be00d8
:10250000ef03b10000000600889fbe0001047800c0
:102510008084eb0038029000e20262003b0032004f
:1025200004037800980290000620b20002003a00ee
:10253000e08f520035003a000490a000800478003b
:1025400034049800f90fb200e08f520002003a0004
:10255000a8029000050c7800ea8f540005003a00ac
:102560000408b20003003a0088007800d000200080
:10257000e5ff070018029000d8029000850f520076
:102580000b0032000402e80015c0b30014049800e8
:1025900018027800094a7800040ce80084922000b0
:1025a000054a7800ea8f540018003a000500370009
:1025b0000940780088007800170007008004780040
:1025c00012003700380290000410b2000f003200f1
:1025d00018019000a800900048009000e7f707005d
:1025e00018029000840f500004003200380290005e
:1025f0000403b300340498008084eb000002eb0075
:102600001404980028029000040c78000900780057
:102610004f04be00000006000200fa00889fbe00c2
:1026200001047800a0ff9f00380290008402780027
:102630000504b200020032000000fb003500370044
:10264000e202620005003a000403b300150498009a
:10265000340498000080eb002e003700d80490006e
:10266000e08f540006003a0012002000e680570078
:1026700048009000c1f707001904980023003700b4
:10268000a8029000e08f520008003a00c592200096
:102690000430a00025049800050c7800340498004c
:1026a000250020005504980015049800180190009a
:1026b000a800900048009000b0f7070028029000a2
:1026c0008082eb0015049800affa9700054a780065
:1026d000040ce8002ffa9700ea4f52000b003a0072
:1026e000380290000410b200080032001801900077
:1026f000a800900048009000a0f707000002eb003f
:10270000a802900014049800050c78002ffa970096
:102710000400fb004f04be000080fa000000060029
:020000040000fa
:102720004a6f00007973000074690000636b000059
:10273000206d00006178000020580000203d00005e
:102740002000000025340000640000004a6f0000f3
:102750007973000074690000636b0000206d000055
:10276000696e000020580000203d0000200000009d
:102770004a6f00007973000074690000636b000009
:10278000206d00006178000020590000203d00000d
:10279000200000004a6f0000797300007469000097
:1027a000636b0000206d0000696e0000205900007e
:1027b000203d0000200000002d2d000020420000e0
:1027c000616c00006c200000706f000073690000f5
:1027d000746900006f6e00003a2000002d2d00008b
:1027e0000058000066280000742900003d25000004
:1027f000750000002534000064200000645f0000c4
:102800006d690000737300006573000021210000f2
:102810002100000051450000493a00002025000039
:102820003575000000000000546f00007563000063
:1028300068200000586d000061780000203d000015
:102840000025000034640000005400006f75000093
:1028500063680000205800006d6900006e200000d1
:102860003d000000546f0000756300006820000008
:10287000596d000061780000203d00000054000008
:102880006f75000063680000205900006d6900004a
:082890006e2000003d00000075
:020000040000fa
:102898000200fa000002eb00040f7800070037007e
:1028a8001e0fe800045327009e027800848f520010
:1028b80002003a0014c0b30006003700d5168000a5
:1028c8000410200004826200e00f5200f4ff32007e
:1028d8000042eb00044078000080fa000000060087
:1028e8000200fa000002eb00040f7800070037002e
:1028f8001e0fe800045327009e027800848f5200c0
:1029080002003a0014c0b30006003700a516800084
:102918000440200004826200e00f5200f4ff3200fd
:102928000042eb00044078000080fa000000060036
:102938000000fa0061e3a900c682a8006c83a90020
:10294800c6a2a8006ca3a9006143a800041b8000cc
:102958000480a1000490a100041b8800041b8000cf
:102968000450a0000460a0000470a000041b8800ac
:102978000002eb00141b880065e3a900251b8000fa
:1029880004f0210005027200241b880024c0b30053
:102998000443780045362000864a780061e3a800a1
:1029a8000080fa00000006000800fa00889fbe00b8
:1029b8001007980021079800624798006e4290001f
:1029c800e04f5200380032001e029000a40290002e
:1029d8002e029000848f52000300360044382000f5
:1029e800040f7800290037001e029000240290008e
:1029f800ae02900004825200050020000400be00d0
:102a08000cf707000002be009299290093f92300f1
:102a18000400be0009f707000002be000404be005f
:102a28001e029000b40290001e0290002402900042
:102a380004825200050020000400be00fdf60700d5
:102a48000002be000401be000800be00aff7070088
:102a58000002be006266260063f623000400be0082
:102a68002df707000002be0002002000a347240043
:102a78000400be00f1f607000002be000400be001c
:102a880084f707000002be00040f7800448320008a
:102a98009e027800848f52003a003600448320005a
:102aa800040f7800370037001e0290009402780067
:102ab8002e029000848f5200030036004438200014
:102ac800040f7800290037001e02900014027800d5
:102ad800ae02900004825200050020000400be00ef
:102ae800d4f607000002be009299290093f923004a
:102af8000400be00d1f607000002be000404be00b8
:102b08001e029000940290001e02900014027800a9
:102b180004825200050020000400be00c5f607002c
:102b28000002be000401be000800be0077f70700df
:102b38000002be006266260063f623000400be00a1
:102b4800f5f607000002be0002002000a34724009b
:102b58000400be00b9f607000002be000400be0073
:102b68004cf707000002be00040f780044832000e1
:102b78009e027800848f52000200360044832000b1
:102b8800040f78001e027800040078004f04be008d
:102b98000080fa00000006000e00fa00889fbe00c0
:102ba8004007980051079800424f98006022b800eb
:102bb80024079800350798006022b800048fbe00eb
:102bc8004e4a9000e04f52003c003200900007004f
:102bd80000027800050020000400be0095f60700fa
:102be8000002be0024079800350798004e029000a6
:102bf80024029000050020000400be008df60700a6
:102c08000002be000401be002e009000be0090002d
:102c1800c0f607000002be000404be005e02900079
:102c2800b40290005e0290002402900004825200d8
:102c3800050020000400be007ef607000002be006a
:102c48000401be000800be007cf607000002be00ba
:102c58000404be004e029000b40290004e029000a0
:102c68002402900004825200050020000400be00e7
:102c780070f607000002be000401be000800be0096
:102c880022f707000002be000404be005e029000a6
:102c980024029000050020000400be0065f607002d
:102ca8000002be000401be000800be009af607003c
:102cb8000002be00048fbe003b0037004200070040
:102cc80000027800050020000400be0059f6070045
:102cd8000002be0024079800350798004e029000b5
:102ce80014027800050020000400be0051f6070019
:102cf8000002be000401be002e009000be0090003d
:102d080084f607000002be000404be005e029000c4
:102d1800940290005e02900014027800048252002f
:102d2800050020000400be0042f607000002be00b5
:102d38000401be000800be0040f607000002be0005
:102d48000404be004e029000940290004e029000cf
:102d58001402780004825200050020000400be001e
:102d680034f607000002be000401be000800be00e1
:102d7800e6f607000002be000404be005e029000f2
:102d880014027800050020000400be0029f60700a0
:102d98000002be000401be000800be005ef6070087
:102da8000002be00048fbe001e00be0019f7070017
:102db8000002be0004027800040078004f04be0040
:102dc8000080fa00000006000000fa00441b8000a2
:102dd8000400a1000410a1000420a0000430a100f8
:102de800441b88006023a80000000000041b80002a
:102df80061026200e00f5200fcff32006003a9008c
:102e0800041a8000040078000080fa000000060020
:102e18000000fa00441b80000400a0000410a10078
:102e28000420a0000430a100441b88006023a800ef
:102e380000000000041b800061026200e00f5200e5
:102e4800fcff32006003a900041a80000400780027
:102e58000080fa00000006000200fa002a83a80099
:102e6800d902a800d342a8000002eb00040f7800a2
:102e78000040eb00f704070080c1b300f504070029
:102e88000040eb00cf04070090c1b300f104070035
:102e98000040eb00cb0407000039290012fa0700b4
:102ea800c0902000d8f907001c003700c6ff0700b3
:102eb800000278008580200094029800743e20006b
:102ec8009e027800848f52001300360080c1b30040
:102ed800e004070060c6b300ba04070090c1b3005d
:102ee800dc0407000040eb00b604070084802000e3
:102ef80014029000841f7800243a2900841f780067
:102f0800baf90700e4875700c0902000bef907000f
:102f18000002eb00040f78001e0fe8005cfe0700bb
:102f280000427800e04f5200e0ff32000002eb0060
:102f3800040f78000000000055fe070000427800ea
:102f4800e04f5200fcff3a0080c1b300c104070003
:102f58000040eb009b04070090c1b300bd040700cc
:102f680080c0b30097040700603a2900def9070023
:102f7800c0902000a4f907001c00370092ff07004a
:102f88000002780085802000840a7800743e2000c2
:102f98009e027800848f52001300360080c1b3006f
:102fa800ac04070060c6b3008604070090c1b300f4
:102fb800a804070080c0b3008204070084802000b2
:102fc80014027800841f7800243a2900841f7800ae
:102fd80086f90700e4875700c09020008af90700a7
:102fe8000002eb00040f78001e0fe80028fe07001f
:102ff80000427800e04f5200e0ff3200000000007d
:1030080023fe070000427800e04f5200fcff3a0020
:1030180080c1b3008f0407000040eb00690407007b
:1030280090c1b3008b04070000c1b300650407001a
:10303800803b2900acf90700c090200072f9070016
:103048001c00370072ff070000027800858020000e
:10305800b4029800743e20009e027800848f5200cb
:103068001300360080c1b3007a04070060c6b300bd
:103078005404070090c1b3007604070000c1b300f0
:10308800500407008480200034029000841f7800d8
:10309800243a2900841f780054f90700e487570070
:1030a800c090200058f907000002eb00040f7800d8
:1030b8001e0fe800f6fd070000427800e04f5200be
:1030c800e0ff320000000000f1fd07000042780038
:1030d800e04f5200fcff3a0080c1b3005d040700d6
:1030e8000040eb003704070090c1b3005904070003
:1030f80080c1b30033040700a03c29007af9070017
:10310800c090200040f907001c00370040ff07006e
:103118000002780085802000a4029800743e2000f8
:103128009e027800848f52001300360080c1b300dd
:103138004804070060c6b3002204070090c1b3002a
:103148004404070080c1b3001e04070084802000e7
:1031580024029000841f7800243a2900841f7800f4
:1031680022f90700e4875700c090200026f90700dd
:103178000002eb00040f78001e0fe800c4fd0700f2
:1031880000427800e04f5200e0ff320000000000eb
:10319800bffd070000427800e04f5200fcff3a00f4
:1031a8000080fa00000006000800fa0030079800c6
:1031b80014002000140798002d0037000002eb00cf
:1031c800040f7800230037001e0278000402420032
:1031d800be02900004824200940278001e02e800b9
:1031e800040242003e0390000402430014027800e7
:1031f800848f5200160036001e0278000402420036
:10320800be029000048242009402780025079800cc
:103218001e02780004024200be029000848242002e
:103228001e02e800040242003e039000040243002c
:1032380014027800840a78001e02e80004024200a2
:10324800be02900004824200ae029000050a780097
:103258001e0fe8001e029000650212009e0f520029
:10326800d9ff3e001e0290000402e80014079800ef
:103278001e029000e40f5200d0ff36003e0290007c
:103288006402420014027800040078000080fa000a
:10329800000006000c00fa00620247000400090062
:1032a800001aeb000002eb00040f7800080037005a
:1032b8003c010700800278001e02780004024200e8
:1032c800040247000482e800050a78001e0fe8009f
:1032d8001e027800e40f5200f5ff36000e82e80067
:1032e80004007800b0ff07000002780004007800ae
:1032f8000080fa00000006000200fa00004f780083
:103308001e427800e04f520008003200da22a9007d
:1033180000000000da42a80000000000da62a800fd
:1033280000402f001100200051f40700441b8000ca
:103338000400a0000410a0000420a0000430a00095
:10334800441b8800d3ff07000002780004007800bf
:103358000080fa00000006000200fa00004f780022
:103368001e427800e04f520008003200da22a8001e
:1033780000000000da42a90000000000da62a9009b
:1033880000402f001100200039f40700441b800082
:103398000400a0000410a1000420a1000430a00033
:1033a800441b8800bbff0700000278000400780077
:1033b8000080fa00000006000000fa0061e3a9009e
:1033c800c722a8002d23a9006d23a900c7e2a800e1
:1033d8006de3a9002de3a900d822a900d842a900cd
:1033e800d862a9006143a800041b80000480a100e2
:1033f8000490a100041b8800041b80000450a00056
:103408000460a0000470a000041b88000002eb0008
:10341800141b880065e3a900251b800004f0210027
:1034280005027200241b880024c0b30004437800fe
:1034380045362000864a780061e3a80080c1b300c1
:10344800840307000040eb005e03070090c1b3004f
:103458008003070000c2b3005a0307004041290057
:10346800a1f80700c090200067f807000a0037009d
:1034780055fe0700000278000041eb008400780048
:103488008080200048fd0700000278008400780052
:1034980080c0b300d8060700fdfc07000042780092
:1034a800e04f5200f2ff320010c0b30092ff070055
:1034b80000027800058120009402980080c1b300c2
:1034c80064030700e0c4b3003e03070090c1b300e3
:1034d8006003070000c2b3003a030700048120001c
:1034e80014029000841f780014422900841f780079
:1034f8003ef80700e4875700c090200042f8070014
:1035080000000000e2fc070000427800e04f520093
:10351800fcff3a0080c1b3004e0307000040eb00f7
:103528002803070090c1b3004a03070080c2b30014
:1035380024030700504229006bf80700c0902000c0
:1035480031f807000a0037001ffe07000002780064
:103558000041eb00840078008080200012fd070005
:10356800000278008400780080c0b300a20607003b
:10357800c7fc070000427800e04f5200f2ff32001b
:1035880010c0b3005cff070000027800058120002e
:10359800840a780080c1b3002e030700e0c4b3009a
:1035a8000803070090c1b3002a03070080c2b300d4
:1035b800040307000481200014027800841f7800a7
:1035c80014422900841f780008f80700e487570090
:1035d800c09020000cf8070000000000acfc0700b9
:1035e80000427800e04f5200fcff3a0080c1b3006f
:1035f800180307000040eb00f202070090c1b30077
:103608001403070000c3b300ee020700204329009b
:1036180035f80700c0902000fbf707000a003700c4
:10362800fbfd07000002780012c0b3008400780098
:1036380080802000dcfc070000027800840078000d
:1036480070c0b3006c06070091fc070000427800c8
:10365800e04f5200f2ff320010c0b3003eff0700f7
:103668000002780005812000b402980080c1b300f0
:10367800f8020700e0c4b300d202070090c1b3000b
:10368800f402070000c3b300ce0207000481200043
:1036980034029000841f780014422900841f7800a7
:1036a800d2f70700e4875700c0902000d6f707003c
:1036b8000000000076fc070000427800e04f52004e
:1036c800fcff3a0080c1b300e20207000040eb00b3
:1036d800bc02070090c1b300de02070080c3b3003c
:1036e800b8020700f0432900fff70700c090200048
:1036f800c5f707000a003700c5fd0700000278007b
:1037080012c0b3008400780080802000a6fc070067
:10371800000278008400780070c0b3003606070005
:103728005bfc070000427800e04f5200f2ff3200d5
:1037380010c0b30008ff07000002780005812000d0
:10374800a402980080c1b300c2020700e0c4b3001d
:103758009c02070090c1b300be02070080c3b300fb
:10376800980207000481200024029000841f78003a
:1037780014422900841f78009cf70700e48757004b
:10378800c0902000a0f707000000000040fc0700e0
:1037980000427800e04f5200fcff3a000080fa0037
:1037a800000006000000fa006023a80000000000e6
:1037b800041b800061026200e00f5200fcff32002f
:1037c8006003a900041a8000040078000080fa0051
:1037d800000006000800fa00889fbe001007980045
:1037e800210798006247980044382000040f7800a9
:1037f8006e429000e04f52003a0032001e029000e4
:10380800a40290002e029000848f5200030036001c
:103818001e029000a4029000250798001e02900046
:10382800b40290002e029000848f520003003100f1
:103838001e029000b4029000250798001e02900016
:1038480024029000ae02900004825200050020007d
:103858000400be0077f307000002be009299290019
:1038680093f923000400be0074f307000002be00b1
:103878000404be001e029000b40290001e029000d4
:103888002402900004825200050020000400be00bb
:1038980068f307000002be000401be000800be0075
:1038a8001af407000002be006266260063f62300d1
:1038b8000400be0098f307000002be0002002000ca
:1038c800a34724000400be005cf307000002be000a
:1038d8000400be00eff307000002be00040f7800ea
:1038e800390037001e029000940278002e029000e2
:1038f800848f5200030036001e0290009402780064
:10390800250798001e029000940290002e02900055
:10391800848f5200030031001e0290009402900030
:10392800250798001e02900014027800ae0290004d
:1039380004825200050020000400be003df3070089
:103948000002be009299290093f923000400be00ea
:103958003af307000002be000404be001e029000f5
:10396800940290001e029000140278000482520013
:10397800050020000400be002ef307000002be0070
:103988000401be000800be00e0f307000002be000c
:103998006266260063f623000400be005ef307009b
:1039a8000002be0002002000a34724000400be005d
:1039b80022f307000002be000400be00b5f30700b2
:1039c8000002be00040f78001e0278000400780090
:1039d8004f04be000080fa00000006000200fa0052
:1039e800004f78001e427800e14f52000c003a0068
:1039f800da22a80000000000da42a9000000000056
:103a0800da62a900441b80000400a0000410a10091
:103a18000420a1000430a000441b88000e003700d9
:103a28001e427800e04f52000b003a00da22a9004b
:103a380000000000da42a80000000000da62a800d6
:103a4800441b80000400a0000410a0000420a00073
:103a58000430a000441b88000080fa000000060023
:103a68000000fa0005e1a9000421a90004c1a90089
:103a7800240880000440a0000450a0002408880006
:103a8800441f2000140888000002eb000408880086
:103a98002405800004c0a00004d0a10004e0a10017
:103aa800240588008460a9009460a80005e1a800a6
:103ab8000080fa00000006004400fa00889fbe005b
:103ac8008a9fbe008c9fbe001400200024498800f5
:103ad800b20107006022b800340798004507980033
:103ae8000042eb00444798004e4090003047980051
:103af800be409000214798002e429000144798003d
:103b08008bfb0700d4fc070080c0b3001605070034
:103b180070c0b3001405070027fe070004812000c9
:103b2800940290000481200014027800048242006c
:103b38000402d100050020000400be00bdf2070009
:103b48000002be000441880015418800048120005d
:103b5800b4029000048120002402900004824200f4
:103b68000402d100050020000400be00b1f20700e5
:103b78000002be0024418800354188000040eb0067
:103b8800b401070080c1b300b20107000040eb0098
:103b98008c01070090c1b300ae0107000040eb00a4
:103ba80088010700c43d2900841f78008ff60700ac
:103bb8008f87e900c090200093f60700780047003f
:103bc800d4cc2c00c5d42300849fbe00a4702d0043
:103bd80035ba2300849fbe000600200007e82300b2
:103be8008002eb000002eb008001eb000001eb001b
:103bf8008000eb002c030700e8875700e002200054
:103c08000e004000d4cc2c00c5dc2300849fbe00ed
:103c1800a4702d0035ba2300849fbe00a699290000
:103c280097d923008002eb000002eb008001eb0033
:103c38000001eb008000eb001b030700e88757003a
:103c480087ff07000042eb00044f7800220037008e
:103c5800140280004522de0067426200244f98006b
:103c68009502800065079800ff3ffc001402800061
:103c78000450a0000460a0000470a0001402880092
:103c88006e029000940288000000880046802000a0
:103c980016437800064f780090028000700798005d
:103ca800ff3ffc002e4a9000674262000482fb003e
:103cb800670262004522dd0016028000f5f12f0040
:103cc8008502630005027200140288007e029000db
:103cd80094028800000088001e427800e04f5200dd
:103ce800dbff32001e429000e04f520095003a0080
:103cf80014408000050020000400be004df20700bb
:103d08000006be002a4180003b418000044080003c
:103d1800050020000400be0046f2070008418000ac
:103d2800194180000c03be000a02be000001be005b
:103d38000800be00810307003e009000ce009000fe
:103d48003cf207000002be00d2cc2c00c3dc2300ea
:103d58000400be0039f207000002be000400be00e5
:103d68006af207000002be0002002000f33a2400b5
:103d78000400be0031f207000002be000200240069
:103d8800e34c24000400be0063f207000002be00fa
:103d980004418800154188003e009000ce00900044
:103da80024f207000002be00d2cc2c00c3dc2300a2
:103db8000400be0021f207000002be000400be009d
:103dc800b2f207000002be0002002000f33a24000d
:103dd8000400be0019f207000002be0002002c0019
:103de800834a24000400be004bf207000002be0014
:103df80024418800354188003e029000ce029000a0
:103e080061024200e0824a003407980045079800a2
:103e18000840800004418000154180000400be0075
:103e28009cf207000002be00840378007803470074
:103e3800d4cc2c00c5d42300080178008700780072
:103e480006007800c10207007e0a9000cfa2de00bb
:103e58000400be00aaf207000003be00044180006f
:103e6800154180000401be000600be002af20700ca
:103e78000002be000400be0086f207000002be0079
:103e8800040f98000041eb008e089000008120008c
:103e980050fe070000027800140f980018408000b8
:103ea80024418000354180000400be0079f20700fb
:103eb8000002be0084037800e60220000e034300df
:103ec800d4cc2c00c5d423000801780087007800e2
:103ed800060078009d0207002e1a9000cfa2de008f
:103ee8000400be0086f207000003be0024418000e3
:103ef800354180000401be000600be0006f207003e
:103f08000002be000400be0062f207000002be000c
:103f1800240f980012c0b300ae0890000081200062
:103f28002cfe070000027800340f98009e089000cd
:103f380080c0b30077030700be08900070c0b300cc
:103f4800740307002e429000e04f520026003a000a
:103f580080c1b300bf0007000040eb0099000700d4
:103f680090c1b300bb00070080c0b30095000700f4
:103f780004408000841f7800143f2900841f7800c3
:103f88009af50700e4875700c09020009ef50700c7
:103f98006480200014427800e04f52001200320082
:103fa80080c1b300ab0007000040eb0085000700ac
:103fb80090c1b300a700070000c3b3008100070049
:103fc80064802000144278000482fb00841f78007b
:103fd800a43f2900841f780084f50700e487570070
:103fe800c090200088f507003e429000e04f520044
:103ff80014003a0080c1b300960007000040eb00af
:104008007000070090c1b3009200070080c3b3009e
:104018006c0007002f03070000027800841f780057
:10402800a4402900841f780070f50700e487570032
:10403800c090200074f507004e4290000442e8004a
:10404800444798001e4290000482fb008402e80066
:1040580024002000110009008402d8000102780021
:10406800144798002e4290000482fb008402e80066
:1040780044012000110009008402d80001027800e0
:10408800244798003e4290000482fb008402e80026
:1040980044062000110009008402d80001027800bb
:1040a800344798000042eb00044378004580200024
:1040b800864a7800e3fe37003600f800809fbe008d
:1040c800829fbe00849fbe00869fbe003400f80019
:1040d80000002000a00188000000fa008460a90008
:1040e8004480200014427800e14f520006003a0054
:1040f80064802000144278000442e80004437800f9
:1041080065802000864a7800548020001442780098
:10411800e04f52000b003a000040eb0076fc07002d
:10412800000278000440880010c0b3002bfe07008e
:1041380014c0b3000443780055802000864a7800f4
:104148000a0037000040eb0083fc070000027800fb
:10415800144088000040eb0020fe07000042eb00fe
:104168000443780055802000864a780014c0b300c4
:104178000443780045802000864a78000080fa00d1
:104188003400f9004f03be004f02be004f01be00cd
:104198004f00be003600f900004006000000fa009b
:1041a8006200200001402000000028000bf50700f5
:1041b80000802e0031002000adf007000080fa00da
:1041c800000006000200fa00004f780001003700e6
:1041d8000000000023c2bf00624060000004e0004d
:1041e800fbff3a001e80fb00201188000100370009
:1041f8000000000023c2bf00614060000004e0002e
:10420800fbff32000080fa00000006000600fa00fa
:1042180010079800414798000040eb00004f7800d5
:10422800070037001e80fb00800078001e00900009
:104238000080400010407800e2ff07001e4fe800b1
:104248004e4090009e4f1000f6ff39000080fa00a3
:10425800000006000200fa00004f7800c0c7b30053
:10426800d8ff07001e407800d6ff07000080fa003c
:10427800000006000000fa00c0c7b300d1ff070025
:104288000040eb00cfff07000080fa0000000600a6
:104298000200fa00000f7800c0c7b300c9ff07008a
:1042a80010c0b300c7ff07001e007800c5ff070055
:1042b8000080fa00000006000200fa00000f7800f3
:1042c800c0c7b300bfff070020c0b300bdff070091
:1042d8001e007800bbff07000080fa0000000600ff
:1042e8000800fa00000f78001107980022079800cc
:1042f80033079800c0c7b300b2ff070030c0b3004f
:10430800b0ff07001e007800aeff07001e009000f7
:10431800acff07002e009000aaff07003e009000a7
:10432800a8ff07000080fa00000006000000fa005d
:10433800c0c7b300a3ff070040c0b300a1ff070038
:104348000080fa00000006000800fa00000f78005c
:10435800110798002207980033079800c0c7b300d8
:1043680098ff070050c0b30096ff07001e007800b2
:1043780094ff07001e00900092ff07002e00900097
:1043880090ff07003e0090008eff07000080fa00b3
:10439800000006000000fa00c0c7b30089ff07004c
:1043a80060c0b30087ff07000080fa000000060025
:1043b8000200fa00000f78001e00e00002003c0036
:1043c80010002000000f7800600020009e0f1000f1
:1043d8000200340060002000000f7800c0c7b3005e
:1043e80078ff070070c0b30076ff07001e00780052
:1043f80074ff07000080fa00000006000000fa00c1
:10440800c0c7b3006fff070080c0b3006dff07008f
:104418000080fa00000006000200fa00000f780091
:10442800c0c7b30067ff0700a0c0b30065ff07005f
:104438001e00780063ff07000080fa0000000600f5
:104448000800fa00000f780011079800220798006a
:1044580033079800c0c7b3005aff0700b0c0b300c5
:1044680058ff07001e00780056ff07001e00900046
:1044780054ff07002e00900052ff07003e009000f6
:1044880050ff07000080fa00000006000a00fa004a
:10449800000f78001107980022079800330798004a
:1044a80044079800c0c7b30046ff0700c0c0b30068
:1044b80044ff07001e00780042ff07001e0090001e
:1044c80040ff07002e0090003eff07003e009000ce
:1044d8003cff07004e0090003aff07000080fa00fa
:1044e800000006000a00fa0010079800210798004b
:1044f8003207980043079800c0c7b30031ff070090
:10450800d0c0b3002fff07001e0090002dff07004a
:104518002e0090002bff07003e00900029ff0700a7
:104528000000eb00000f7800070037001e0078003d
:10453800800078004e009000008040001040780015
:1045480020ff07001e0fe800f00120009e0f10005a
:10455800f6ff34000080fa00000006000a00fa00a6
:10456800000f780011079800220798003307980079
:1045780044079800c0c7b30012ff0700f0c0b3009b
:1045880010ff07001e0078000eff07001e009000b5
:104598000cff07002e0090000aff07003e00900065
:1045a80008ff07004e00900006ff07000080fa0091
:1045b800000006000600fa00000f780011079800b6
:1045c80022079800c0c7b300fefe070000c1b30071
:1045d800fcfe0700000820009e0f100003003400b6
:1045e80000c8b300f7fe0700070037001e00e00010
:1045f80003003d000040eb00f2fe07000200370018
:104608001e007800effe07009e00900000042000c6
:10461800808f50000300340000c4b300e9fe070097
:10462800080037001e0090000000e00003003d0075
:104638000040eb00e3fe0700020037001e00900078
:10464800e0fe07002e009000e10f50000600320047
:104658002e0090000000e0000300320010c0b300fc
:10466800d8fe0700020037002e009000d5fe070094
:104678000080fa00000006000a00fa00000f780027
:10468800110798002207980033079800044f9800f4
:10469800c0c7b300cbfe070020c1b300c9fe0700a6
:1046a8001e007800c7fe07001e009000c5fe070028
:1046b8002e009000c3fe07003e009000c1fe0700d8
:1046c8000e489000bffe07000080fa0000000600b8
:1046d8000000fa00c0c7b300bafe070040c1b3002b
:1046e800b8fe07000080fa00000006000000fa008b
:1046f800c0c7b300b3fe070050c1b300b1fe070046
:104708000080fa00000006000e00fa00100798006a
:10471800210798003207980043079800540798002b
:1047280065079800c0c7b300a6fe070060c1b300c4
:10473800a4fe07001e009000a2fe07002e009000b5
:10474800a0fe07003e0090009efe07004e0090006d
:104758009cfe07005e0090009afe0700ce009000c5
:104768005e0090000088b900820020001100090056
:104778000200d800000f78000000eb001007980036
:10478800090037001e009000800078006e0090003d
:1047980000804000104078008afe07001e0090004c
:1047a8000000e800100798001e0090009e0f5000bf
:1047b800f4ff35000080fa00000006000400fa004b
:1047c800000f780011079800c0c7b3007dfe0700ee
:1047d80080c1b3007bfe07001e00780079fe070049
:1047e800c0c7b30077fe070090c1b30075fe07008d
:1047f8001e00900073fe07000080fa00000006000b
:104808000400fa00100798001e009000e80f5000fe
:104818000300340080002000100798000c003700c7
:104828001e0090000000e00003003c001000200083
:1048380010079800060037001e0090004300dd00b6
:10484800680f50009e00780010002000dbff070072
:104858000080fa00000006000a00fa00000f780045
:10486800110798002207980033079800440798001a
:104878001e0278009e029000050a78001e02780049
:10488800ae029000150298001e027800be02900049
:10489800250298001e027800ce029000350298008a
:1048a8000080fa00000006001000fa00000f7800ef
:1048b80011079800220798003307980044079800ca
:1048c8005507980066079800770798001e02780039
:1048d8009e029000050a78001e0278002e039000c0
:1048e800160298001e027800be0390002702980066
:1048f8001e027800ce029000350298001e02780051
:104908005e039000460298001e0278006e03900035
:10491800fe03900056029800670298001e02780075
:104928003ebb9700cebb970076029800070a980016
:104938001e0278001ebb9700aebb9700160a9800af
:10494800270a98000080fa00000006000a00fa0012
:10495800889fbe008a9fbe00000f7800110798004c
:104968002207980034079800450798009e02900097
:104978002e02900004825200840278001e02780001
:10498800050a78001e02780014029000cfa2de000b
:104998000400be00daef07000004be001e02780023
:1049a80014027800cfa2de000400be00d4ef070096
:1049b8000002be003e019000ce0190000400be003f
:1049c8001eef07000002be000401be000800be0082
:1049d80051ef07000002be000400be000df0070002
:1049e8000002be00840278001e02780015029800ba
:1049f8001e027800940278001e027800440290009b
:104a080004825200cfa2de000400be00bcef070003
:104a18000002be003e019000ce0190000400be00de
:104a2800baef07000002be000400be00f9ef07005d
:104a38000002be00840278001e0278002502980059
:104a48001e02780054049000e40490001e027800ce
:104a580014027800cfa2de000400be00a8ef070011
:104a68000002be000401be000800be00f3ee07000d
:104a78000002be000404be001e0278007405900007
:104a8800840d90001e02780014029000cfa2de0070
:104a98000400be009aef07000002be000401be0039
:104aa8000a00be00e5ee07000002be000401be00d9
:104ab8000800be0018ef07000002be000404be0094
:104ac8001e027800140d9000a40d90001e027800bc
:104ad80024029000cfa2de000400be0088ef070089
:104ae8000002be000401be000a00be00d3ee0700ab
:104af8000002be000401be000800be0006ef070069
:104b08000002be000400be00c2ef07000002be00a3
:104b1800840278001e027800350298001e02780090
:104b2800940278001e027800450298004f05be00e6
:104b38004f04be000080fa00000006001800fa00ca
:104b4800889fbe00400798005107980062079800a8
:104b580073079800040f9800150f9800260f980007
:104b6800370f98006e019000fe0190004e009000f3
:104b7800de009000e7ee07000002be000401be0060
:104b88000400be00adee07000002be000404be0033
:104b98002e099000be0990000e0890009e08900013
:104ba800dcee07000002be000401be000400be00e7
:104bb800a2ee07000002be000401be000800be000d
:104bc800d5ee07000002be00a2702d0033c22300fc
:104bd8000400be0099ee07000002be00048fbe006c
:104be80084418000cfa2de000400be0044ef07002d
:104bf8000002be000401be000400be008fee0700e4
:104c08000002be000404be0094418000cfa2de0072
:104c18000400be003aef07000002be000401be0017
:104c28000400be0085ee07000002be000401be00bd
:104c38000800be00b8ee07000002be00a2702d00fa
:104c480033c223000400be007cee07000002be0051
:104c5800240798003507980044418000554180009a
:104c6800a2702d0033ca23000400be00aaee07007c
:104c78000002be0044418800554188002e01900082
:104c8800be0190001e00be00a3ee07000002be0099
:104c9800a2702d0033ca23000400be0067ee07008f
:104ca8000002be000403be0064418000754180001c
:104cb8000401be000600be0097ee07000002be0019
:104cc80064418800754188004f04be000080fa00e6
:104cd800000006000000fa0066418000774180006d
:104ce80044418000554180000401be000600be001a
:104cf80006ef07000002be000400be00e5ee070054
:104d08000002be0004027800040078000080fa0067
:104d1800000006000400fa00004f78001107980010
:104d28009e4278000582fb00e70f52000700320020
:104d3800e80f52000a003a009e02900044a22f0099
:104d48000482420084418800050037009e029000da
:104d580044a22f0004824200944188000000000011
:104d68009e0090001e407800a30007000080fa0013
:044d78000000060031
:020000040000fa
:104d7c001808000010000000020000005401cc00d4
:104d8c000bc60100610a000040ce440000c0c10007
:104d9c0044000000000800001800000000000000a3
:104dac00280800000c00000000000000240900008e
:104dbc0002000000020000000100000034080000a6
:104dcc0002000000000000000009000024000000a8
:104ddc00020000002a090000002a09000900000056
:104dec00000200002c090000002c09000e0201003a
:104dfc00000000000000000000000000060202009d
:104e0c000000000026090000020000000200000063
:104e1c00000900002809000002000000000000004a
:104e2c002a09000002000000000000002c0900000c
:104e3c000200000000000000d60800002a0000005c
:104e4c000200000030313200333435003637380080
:104e5c0039414200434445004600300031323300b2
:104e6c00343536003738390061626300646566009a
:104e7c0000286e00756c6c002900000036080000dc
:104e8c00a000000002000000010000000000000073
:104e9c0000000a0000000000000000000064000098
:104eac000000000000000000e8030000000000000b
:104ebc0000001000270000000000000000a0860089
:104ecc00010000000000000040420f000000000044
:104edc000000800096980000000000000000e10037
:104eec00f50500000000000000ca9a003b0000001d
:104efc0000000000e40b5400020000000000e80079
:104f0c0076481700000000000010a500d4e800004f
:104f1c0000000000a0724e001809000000004000c4
:104f2c007a10f3005a0000000080c600a47e8d00a9
:104f3c000300000000c16f00f28623000000000097
:104f4c008a5d78004563010000006400a7b3b600d9
:104f5c00e00d000000e889000423c7008a0000006f
:044f6c000000000041
:020000040000fa
:104f70000200fa00004f780011e1a9001021a900f9
:104f800010c1a9000002eb003408880084088000ea
:104f90000440a1000450a0008408880084e0a90017
:104fa00094e0a90004fa2000640888001e427800fa
:104fb000e84f520008003a00d2e2a9000002eb00dc
:104fc000640d880044e72000540d88006400200030
:104fd000740d880007003700d2a2a9000002eb0080
:104fe000340d880044e72000240d88006400200070
:104ff000440d880011e1a8000080fa0000000600be
:105000000400fa00004f7800110798001e42780053
:10501000e84f52000a003a001e029000c222dd0052
:1050200044012000110009008482d80000027800a9
:1050300005fa200004825200540d88000900370050
:105040001e029000c222dd00440120001100090070
:105050008482d8000002780005fa20000482520001
:0c506000240d88000080fa00000006000b
:020000040000fa
:0200000401f009
:04000800ffff0000f6
:020000040000fa
:0200000401f009
:04000c00fbff0000f6
:020000040000fa
:0200000401f009
:04001000fdff0000f0
:020000040000fa
:0200000401f009
:040014007fff00006a
:00000001FF
